{
  "address": "0x17d3B882F863462365D60B9ebcDB48dA4F4078eD",
  "abi": [
    {
      "inputs": [],
      "stateMutability": "nonpayable",
      "type": "constructor"
    },
    {
      "anonymous": false,
      "inputs": [
        {
          "indexed": true,
          "internalType": "address",
          "name": "owner",
          "type": "address"
        },
        {
          "indexed": true,
          "internalType": "address",
          "name": "approved",
          "type": "address"
        },
        {
          "indexed": true,
          "internalType": "uint256",
          "name": "tokenId",
          "type": "uint256"
        }
      ],
      "name": "Approval",
      "type": "event"
    },
    {
      "anonymous": false,
      "inputs": [
        {
          "indexed": true,
          "internalType": "address",
          "name": "owner",
          "type": "address"
        },
        {
          "indexed": true,
          "internalType": "address",
          "name": "operator",
          "type": "address"
        },
        {
          "indexed": false,
          "internalType": "bool",
          "name": "approved",
          "type": "bool"
        }
      ],
      "name": "ApprovalForAll",
      "type": "event"
    },
    {
      "anonymous": false,
      "inputs": [
        {
          "indexed": false,
          "internalType": "uint256",
          "name": "_fromTokenId",
          "type": "uint256"
        },
        {
          "indexed": false,
          "internalType": "uint256",
          "name": "_toTokenId",
          "type": "uint256"
        }
      ],
      "name": "BatchMetadataUpdate",
      "type": "event"
    },
    {
      "anonymous": false,
      "inputs": [
        {
          "indexed": true,
          "internalType": "uint256",
          "name": "tokenId",
          "type": "uint256"
        },
        {
          "indexed": true,
          "internalType": "uint256",
          "name": "commentId",
          "type": "uint256"
        },
        {
          "indexed": true,
          "internalType": "address",
          "name": "author",
          "type": "address"
        },
        {
          "indexed": false,
          "internalType": "string",
          "name": "content",
          "type": "string"
        },
        {
          "indexed": false,
          "internalType": "uint256",
          "name": "timestamp",
          "type": "uint256"
        }
      ],
      "name": "CommentAdded",
      "type": "event"
    },
    {
      "anonymous": false,
      "inputs": [
        {
          "indexed": true,
          "internalType": "uint256",
          "name": "commentId",
          "type": "uint256"
        },
        {
          "indexed": true,
          "internalType": "address",
          "name": "liker",
          "type": "address"
        },
        {
          "indexed": false,
          "internalType": "uint256",
          "name": "newLikeCount",
          "type": "uint256"
        }
      ],
      "name": "CommentLiked",
      "type": "event"
    },
    {
      "anonymous": false,
      "inputs": [
        {
          "indexed": true,
          "internalType": "uint256",
          "name": "parentCommentId",
          "type": "uint256"
        },
        {
          "indexed": true,
          "internalType": "uint256",
          "name": "replyCommentId",
          "type": "uint256"
        },
        {
          "indexed": true,
          "internalType": "address",
          "name": "author",
          "type": "address"
        }
      ],
      "name": "CommentReplied",
      "type": "event"
    },
    {
      "anonymous": false,
      "inputs": [
        {
          "indexed": true,
          "internalType": "address",
          "name": "sender",
          "type": "address"
        },
        {
          "indexed": false,
          "internalType": "uint256",
          "name": "amount",
          "type": "uint256"
        }
      ],
      "name": "FeesReceived",
      "type": "event"
    },
    {
      "anonymous": false,
      "inputs": [
        {
          "indexed": true,
          "internalType": "address",
          "name": "owner",
          "type": "address"
        },
        {
          "indexed": false,
          "internalType": "uint256",
          "name": "amount",
          "type": "uint256"
        }
      ],
      "name": "FeesWithdrawn",
      "type": "event"
    },
    {
      "anonymous": false,
      "inputs": [
        {
          "indexed": true,
          "internalType": "address",
          "name": "sender",
          "type": "address"
        },
        {
          "indexed": false,
          "internalType": "uint256",
          "name": "tokenId",
          "type": "uint256"
        },
        {
          "indexed": false,
          "internalType": "uint256",
          "name": "integral",
          "type": "uint256"
        },
        {
          "indexed": false,
          "internalType": "uint256",
          "name": "timestamp",
          "type": "uint256"
        }
      ],
      "name": "Integral",
      "type": "event"
    },
    {
      "anonymous": false,
      "inputs": [
        {
          "indexed": false,
          "internalType": "uint256",
          "name": "newListingFeePercentage",
          "type": "uint256"
        }
      ],
      "name": "ListingFeePercentageUpdated",
      "type": "event"
    },
    {
      "anonymous": false,
      "inputs": [
        {
          "indexed": false,
          "internalType": "uint256",
          "name": "_tokenId",
          "type": "uint256"
        }
      ],
      "name": "MetadataUpdate",
      "type": "event"
    },
    {
      "anonymous": false,
      "inputs": [
        {
          "indexed": true,
          "internalType": "uint256",
          "name": "tokenId",
          "type": "uint256"
        },
        {
          "indexed": true,
          "internalType": "address",
          "name": "seller",
          "type": "address"
        },
        {
          "indexed": false,
          "internalType": "uint256",
          "name": "price",
          "type": "uint256"
        },
        {
          "indexed": false,
          "internalType": "uint256",
          "name": "timestamp",
          "type": "uint256"
        },
        {
          "indexed": false,
          "internalType": "uint256",
          "name": "transactionId",
          "type": "uint256"
        }
      ],
      "name": "NftListed",
      "type": "event"
    },
    {
      "anonymous": false,
      "inputs": [
        {
          "indexed": true,
          "internalType": "uint256",
          "name": "tokenId",
          "type": "uint256"
        },
        {
          "indexed": true,
          "internalType": "address",
          "name": "buyer",
          "type": "address"
        },
        {
          "indexed": true,
          "internalType": "address",
          "name": "seller",
          "type": "address"
        },
        {
          "indexed": false,
          "internalType": "uint256",
          "name": "price",
          "type": "uint256"
        },
        {
          "indexed": false,
          "internalType": "uint256",
          "name": "timestamp",
          "type": "uint256"
        },
        {
          "indexed": false,
          "internalType": "uint256",
          "name": "transactionId",
          "type": "uint256"
        }
      ],
      "name": "NftPurchased",
      "type": "event"
    },
    {
      "anonymous": false,
      "inputs": [
        {
          "indexed": false,
          "internalType": "uint256",
          "name": "transactionId",
          "type": "uint256"
        },
        {
          "indexed": true,
          "internalType": "uint256",
          "name": "tokenId",
          "type": "uint256"
        },
        {
          "indexed": true,
          "internalType": "address",
          "name": "seller",
          "type": "address"
        },
        {
          "indexed": false,
          "internalType": "uint256",
          "name": "timestamp",
          "type": "uint256"
        }
      ],
      "name": "NftUnlisted",
      "type": "event"
    },
    {
      "anonymous": false,
      "inputs": [
        {
          "indexed": true,
          "internalType": "address",
          "name": "previousOwner",
          "type": "address"
        },
        {
          "indexed": true,
          "internalType": "address",
          "name": "newOwner",
          "type": "address"
        }
      ],
      "name": "OwnershipTransferred",
      "type": "event"
    },
    {
      "anonymous": false,
      "inputs": [
        {
          "indexed": false,
          "internalType": "uint256",
          "name": "transactionId",
          "type": "uint256"
        },
        {
          "indexed": true,
          "internalType": "uint256",
          "name": "tokenId",
          "type": "uint256"
        },
        {
          "indexed": true,
          "internalType": "address",
          "name": "creator",
          "type": "address"
        },
        {
          "indexed": false,
          "internalType": "uint256",
          "name": "amount",
          "type": "uint256"
        },
        {
          "indexed": false,
          "internalType": "uint256",
          "name": "timestamp",
          "type": "uint256"
        }
      ],
      "name": "RoyaltyPaid",
      "type": "event"
    },
    {
      "anonymous": false,
      "inputs": [
        {
          "indexed": true,
          "internalType": "address",
          "name": "buyer",
          "type": "address"
        },
        {
          "indexed": true,
          "internalType": "address",
          "name": "seller",
          "type": "address"
        },
        {
          "indexed": false,
          "internalType": "uint256",
          "name": "tokenId",
          "type": "uint256"
        },
        {
          "indexed": false,
          "internalType": "uint256",
          "name": "amount",
          "type": "uint256"
        },
        {
          "indexed": false,
          "internalType": "uint256",
          "name": "timestamp",
          "type": "uint256"
        },
        {
          "indexed": false,
          "internalType": "uint256",
          "name": "transactionId",
          "type": "uint256"
        }
      ],
      "name": "TransactionRecord",
      "type": "event"
    },
    {
      "anonymous": false,
      "inputs": [
        {
          "indexed": true,
          "internalType": "address",
          "name": "from",
          "type": "address"
        },
        {
          "indexed": true,
          "internalType": "address",
          "name": "to",
          "type": "address"
        },
        {
          "indexed": true,
          "internalType": "uint256",
          "name": "tokenId",
          "type": "uint256"
        },
        {
          "indexed": false,
          "internalType": "uint256",
          "name": "timestamp",
          "type": "uint256"
        },
        {
          "indexed": false,
          "internalType": "bytes32",
          "name": "transactionId",
          "type": "bytes32"
        }
      ],
      "name": "Transfer",
      "type": "event"
    },
    {
      "anonymous": false,
      "inputs": [
        {
          "indexed": true,
          "internalType": "address",
          "name": "from",
          "type": "address"
        },
        {
          "indexed": true,
          "internalType": "address",
          "name": "to",
          "type": "address"
        },
        {
          "indexed": true,
          "internalType": "uint256",
          "name": "tokenId",
          "type": "uint256"
        }
      ],
      "name": "Transfer",
      "type": "event"
    },
    {
      "inputs": [],
      "name": "MAX_LISTING_FEE_PERCENTAGE",
      "outputs": [
        {
          "internalType": "uint256",
          "name": "",
          "type": "uint256"
        }
      ],
      "stateMutability": "view",
      "type": "function"
    },
    {
      "inputs": [
        {
          "internalType": "uint256",
          "name": "tokenId",
          "type": "uint256"
        },
        {
          "internalType": "string",
          "name": "content",
          "type": "string"
        },
        {
          "internalType": "uint256",
          "name": "parentId",
          "type": "uint256"
        }
      ],
      "name": "addComment",
      "outputs": [],
      "stateMutability": "nonpayable",
      "type": "function"
    },
    {
      "inputs": [
        {
          "internalType": "address",
          "name": "to",
          "type": "address"
        },
        {
          "internalType": "uint256",
          "name": "tokenId",
          "type": "uint256"
        }
      ],
      "name": "approve",
      "outputs": [],
      "stateMutability": "nonpayable",
      "type": "function"
    },
    {
      "inputs": [
        {
          "internalType": "address",
          "name": "owner",
          "type": "address"
        }
      ],
      "name": "balanceOf",
      "outputs": [
        {
          "internalType": "uint256",
          "name": "",
          "type": "uint256"
        }
      ],
      "stateMutability": "view",
      "type": "function"
    },
    {
      "inputs": [
        {
          "internalType": "uint256",
          "name": "priceInWei",
          "type": "uint256"
        }
      ],
      "name": "calculateListingFee",
      "outputs": [
        {
          "internalType": "uint256",
          "name": "",
          "type": "uint256"
        }
      ],
      "stateMutability": "view",
      "type": "function"
    },
    {
      "inputs": [
        {
          "internalType": "uint256",
          "name": "tokenId",
          "type": "uint256"
        }
      ],
      "name": "getApproved",
      "outputs": [
        {
          "internalType": "address",
          "name": "",
          "type": "address"
        }
      ],
      "stateMutability": "view",
      "type": "function"
    },
    {
      "inputs": [
        {
          "internalType": "uint256",
          "name": "commentId",
          "type": "uint256"
        }
      ],
      "name": "getComment",
      "outputs": [
        {
          "components": [
            {
              "internalType": "uint256",
              "name": "id",
              "type": "uint256"
            },
            {
              "internalType": "address",
              "name": "author",
              "type": "address"
            },
            {
              "internalType": "string",
              "name": "content",
              "type": "string"
            },
            {
              "internalType": "uint256",
              "name": "timestamp",
              "type": "uint256"
            },
            {
              "internalType": "uint256",
              "name": "likes",
              "type": "uint256"
            },
            {
              "internalType": "uint256[]",
              "name": "replies",
              "type": "uint256[]"
            },
            {
              "internalType": "uint256",
              "name": "parentId",
              "type": "uint256"
            }
          ],
          "internalType": "struct YourCollectible.Comment",
          "name": "",
          "type": "tuple"
        }
      ],
      "stateMutability": "view",
      "type": "function"
    },
    {
      "inputs": [
        {
          "internalType": "uint256",
          "name": "tokenId",
          "type": "uint256"
        }
      ],
      "name": "getEducationalResource",
      "outputs": [
        {
          "components": [
            {
              "internalType": "uint256",
              "name": "tokenId",
              "type": "uint256"
            },
            {
              "internalType": "uint256",
              "name": "price",
              "type": "uint256"
            },
            {
              "internalType": "address payable",
              "name": "creator",
              "type": "address"
            },
            {
              "internalType": "bool",
              "name": "isListed",
              "type": "bool"
            },
            {
              "internalType": "string",
              "name": "eduUri",
              "type": "string"
            },
            {
              "internalType": "string",
              "name": "tokenUri",
              "type": "string"
            },
            {
              "internalType": "string",
              "name": "resourceType",
              "type": "string"
            },
            {
              "internalType": "string",
              "name": "subject",
              "type": "string"
            },
            {
              "internalType": "string",
              "name": "educationLevel",
              "type": "string"
            },
            {
              "internalType": "uint256",
              "name": "downloadCount",
              "type": "uint256"
            },
            {
              "internalType": "uint256",
              "name": "rating",
              "type": "uint256"
            },
            {
              "internalType": "uint256",
              "name": "ratingCount",
              "type": "uint256"
            },
            {
              "internalType": "uint256[]",
              "name": "commentIds",
              "type": "uint256[]"
            },
            {
              "internalType": "bool",
              "name": "isAccredited",
              "type": "bool"
            },
            {
              "internalType": "uint256",
              "name": "accreditedCount",
              "type": "uint256"
            },
            {
              "internalType": "address[]",
              "name": "accreditedInstitutions",
              "type": "address[]"
            },
            {
              "internalType": "address[]",
              "name": "buyers",
              "type": "address[]"
            },
            {
              "internalType": "uint256",
              "name": "creationTime",
              "type": "uint256"
            },
            {
              "internalType": "uint256",
              "name": "minRating",
              "type": "uint256"
            },
            {
              "internalType": "string[]",
              "name": "reviews",
              "type": "string[]"
            },
            {
              "internalType": "address[]",
              "name": "reviewers",
              "type": "address[]"
            }
          ],
          "internalType": "struct YourCollectible.EduResource",
          "name": "",
          "type": "tuple"
        }
      ],
      "stateMutability": "view",
      "type": "function"
    },
    {
      "inputs": [
        {
          "internalType": "uint256",
          "name": "tokenId",
          "type": "uint256"
        }
      ],
      "name": "getResourceComments",
      "outputs": [
        {
          "components": [
            {
              "internalType": "uint256",
              "name": "id",
              "type": "uint256"
            },
            {
              "internalType": "address",
              "name": "author",
              "type": "address"
            },
            {
              "internalType": "string",
              "name": "content",
              "type": "string"
            },
            {
              "internalType": "uint256",
              "name": "timestamp",
              "type": "uint256"
            },
            {
              "internalType": "uint256",
              "name": "likes",
              "type": "uint256"
            },
            {
              "internalType": "uint256[]",
              "name": "replies",
              "type": "uint256[]"
            },
            {
              "internalType": "uint256",
              "name": "parentId",
              "type": "uint256"
            }
          ],
          "internalType": "struct YourCollectible.Comment[]",
          "name": "",
          "type": "tuple[]"
        }
      ],
      "stateMutability": "view",
      "type": "function"
    },
    {
      "inputs": [
        {
          "internalType": "address",
          "name": "userAddress",
          "type": "address"
        }
      ],
      "name": "getResourcesByAddress",
      "outputs": [
        {
          "components": [
            {
              "internalType": "uint256",
              "name": "tokenId",
              "type": "uint256"
            },
            {
              "internalType": "uint256",
              "name": "price",
              "type": "uint256"
            },
            {
              "internalType": "address payable",
              "name": "creator",
              "type": "address"
            },
            {
              "internalType": "bool",
              "name": "isListed",
              "type": "bool"
            },
            {
              "internalType": "string",
              "name": "eduUri",
              "type": "string"
            },
            {
              "internalType": "string",
              "name": "tokenUri",
              "type": "string"
            },
            {
              "internalType": "string",
              "name": "resourceType",
              "type": "string"
            },
            {
              "internalType": "string",
              "name": "subject",
              "type": "string"
            },
            {
              "internalType": "string",
              "name": "educationLevel",
              "type": "string"
            },
            {
              "internalType": "uint256",
              "name": "downloadCount",
              "type": "uint256"
            },
            {
              "internalType": "uint256",
              "name": "rating",
              "type": "uint256"
            },
            {
              "internalType": "uint256",
              "name": "ratingCount",
              "type": "uint256"
            },
            {
              "internalType": "uint256[]",
              "name": "commentIds",
              "type": "uint256[]"
            },
            {
              "internalType": "bool",
              "name": "isAccredited",
              "type": "bool"
            },
            {
              "internalType": "uint256",
              "name": "accreditedCount",
              "type": "uint256"
            },
            {
              "internalType": "address[]",
              "name": "accreditedInstitutions",
              "type": "address[]"
            },
            {
              "internalType": "address[]",
              "name": "buyers",
              "type": "address[]"
            },
            {
              "internalType": "uint256",
              "name": "creationTime",
              "type": "uint256"
            },
            {
              "internalType": "uint256",
              "name": "minRating",
              "type": "uint256"
            },
            {
              "internalType": "string[]",
              "name": "reviews",
              "type": "string[]"
            },
            {
              "internalType": "address[]",
              "name": "reviewers",
              "type": "address[]"
            }
          ],
          "internalType": "struct YourCollectible.EduResource[]",
          "name": "",
          "type": "tuple[]"
        }
      ],
      "stateMutability": "view",
      "type": "function"
    },
    {
      "inputs": [
        {
          "internalType": "address",
          "name": "userAddress",
          "type": "address"
        }
      ],
      "name": "getResourcesByBuy",
      "outputs": [
        {
          "components": [
            {
              "internalType": "uint256",
              "name": "tokenId",
              "type": "uint256"
            },
            {
              "internalType": "uint256",
              "name": "price",
              "type": "uint256"
            },
            {
              "internalType": "address payable",
              "name": "creator",
              "type": "address"
            },
            {
              "internalType": "bool",
              "name": "isListed",
              "type": "bool"
            },
            {
              "internalType": "string",
              "name": "eduUri",
              "type": "string"
            },
            {
              "internalType": "string",
              "name": "tokenUri",
              "type": "string"
            },
            {
              "internalType": "string",
              "name": "resourceType",
              "type": "string"
            },
            {
              "internalType": "string",
              "name": "subject",
              "type": "string"
            },
            {
              "internalType": "string",
              "name": "educationLevel",
              "type": "string"
            },
            {
              "internalType": "uint256",
              "name": "downloadCount",
              "type": "uint256"
            },
            {
              "internalType": "uint256",
              "name": "rating",
              "type": "uint256"
            },
            {
              "internalType": "uint256",
              "name": "ratingCount",
              "type": "uint256"
            },
            {
              "internalType": "uint256[]",
              "name": "commentIds",
              "type": "uint256[]"
            },
            {
              "internalType": "bool",
              "name": "isAccredited",
              "type": "bool"
            },
            {
              "internalType": "uint256",
              "name": "accreditedCount",
              "type": "uint256"
            },
            {
              "internalType": "address[]",
              "name": "accreditedInstitutions",
              "type": "address[]"
            },
            {
              "internalType": "address[]",
              "name": "buyers",
              "type": "address[]"
            },
            {
              "internalType": "uint256",
              "name": "creationTime",
              "type": "uint256"
            },
            {
              "internalType": "uint256",
              "name": "minRating",
              "type": "uint256"
            },
            {
              "internalType": "string[]",
              "name": "reviews",
              "type": "string[]"
            },
            {
              "internalType": "address[]",
              "name": "reviewers",
              "type": "address[]"
            }
          ],
          "internalType": "struct YourCollectible.EduResource[]",
          "name": "",
          "type": "tuple[]"
        }
      ],
      "stateMutability": "view",
      "type": "function"
    },
    {
      "inputs": [
        {
          "internalType": "string",
          "name": "subject",
          "type": "string"
        }
      ],
      "name": "getResourcesBySubject",
      "outputs": [
        {
          "internalType": "uint256[]",
          "name": "",
          "type": "uint256[]"
        }
      ],
      "stateMutability": "view",
      "type": "function"
    },
    {
      "inputs": [],
      "name": "getTokenId",
      "outputs": [
        {
          "internalType": "uint256",
          "name": "",
          "type": "uint256"
        }
      ],
      "stateMutability": "view",
      "type": "function"
    },
    {
      "inputs": [
        {
          "internalType": "address",
          "name": "userAddress",
          "type": "address"
        }
      ],
      "name": "getUserMessage",
      "outputs": [
        {
          "internalType": "string",
          "name": "",
          "type": "string"
        },
        {
          "internalType": "string",
          "name": "",
          "type": "string"
        },
        {
          "internalType": "uint256",
          "name": "",
          "type": "uint256"
        },
        {
          "internalType": "string",
          "name": "",
          "type": "string"
        }
      ],
      "stateMutability": "view",
      "type": "function"
    },
    {
      "inputs": [
        {
          "internalType": "address",
          "name": "userAddress",
          "type": "address"
        }
      ],
      "name": "getUserPurchasedResources",
      "outputs": [
        {
          "internalType": "uint256[]",
          "name": "",
          "type": "uint256[]"
        }
      ],
      "stateMutability": "view",
      "type": "function"
    },
    {
      "inputs": [
        {
          "internalType": "address",
          "name": "owner",
          "type": "address"
        },
        {
          "internalType": "address",
          "name": "operator",
          "type": "address"
        }
      ],
      "name": "isApprovedForAll",
      "outputs": [
        {
          "internalType": "bool",
          "name": "",
          "type": "bool"
        }
      ],
      "stateMutability": "view",
      "type": "function"
    },
    {
      "inputs": [
        {
          "internalType": "uint256",
          "name": "commentId",
          "type": "uint256"
        }
      ],
      "name": "likeComment",
      "outputs": [],
      "stateMutability": "nonpayable",
      "type": "function"
    },
    {
      "inputs": [
        {
          "internalType": "uint256",
          "name": "tokenId",
          "type": "uint256"
        },
        {
          "internalType": "uint256",
          "name": "price",
          "type": "uint256"
        }
      ],
      "name": "listEducationalResource",
      "outputs": [],
      "stateMutability": "payable",
      "type": "function"
    },
    {
      "inputs": [],
      "name": "listingFeePercentage",
      "outputs": [
        {
          "internalType": "uint256",
          "name": "",
          "type": "uint256"
        }
      ],
      "stateMutability": "view",
      "type": "function"
    },
    {
      "inputs": [
        {
          "internalType": "address",
          "name": "to",
          "type": "address"
        },
        {
          "internalType": "string",
          "name": "eduUri",
          "type": "string"
        },
        {
          "internalType": "string",
          "name": "uri",
          "type": "string"
        },
        {
          "internalType": "uint96",
          "name": "royaltyFeeNumber",
          "type": "uint96"
        },
        {
          "internalType": "string",
          "name": "resourceType",
          "type": "string"
        },
        {
          "internalType": "string",
          "name": "subject",
          "type": "string"
        },
        {
          "internalType": "string",
          "name": "educationLevel",
          "type": "string"
        }
      ],
      "name": "mintEducationalResource",
      "outputs": [
        {
          "internalType": "uint256",
          "name": "",
          "type": "uint256"
        }
      ],
      "stateMutability": "nonpayable",
      "type": "function"
    },
    {
      "inputs": [],
      "name": "name",
      "outputs": [
        {
          "internalType": "string",
          "name": "",
          "type": "string"
        }
      ],
      "stateMutability": "view",
      "type": "function"
    },
    {
      "inputs": [],
      "name": "owner",
      "outputs": [
        {
          "internalType": "address",
          "name": "",
          "type": "address"
        }
      ],
      "stateMutability": "view",
      "type": "function"
    },
    {
      "inputs": [
        {
          "internalType": "uint256",
          "name": "tokenId",
          "type": "uint256"
        }
      ],
      "name": "ownerOf",
      "outputs": [
        {
          "internalType": "address",
          "name": "",
          "type": "address"
        }
      ],
      "stateMutability": "view",
      "type": "function"
    },
    {
      "inputs": [
        {
          "internalType": "uint256",
          "name": "tokenId",
          "type": "uint256"
        }
      ],
      "name": "purchaseEducationalResource",
      "outputs": [],
      "stateMutability": "payable",
      "type": "function"
    },
    {
      "inputs": [
        {
          "internalType": "uint256",
          "name": "tokenId",
          "type": "uint256"
        },
        {
          "internalType": "uint256",
          "name": "score",
          "type": "uint256"
        }
      ],
      "name": "rateResource",
      "outputs": [],
      "stateMutability": "nonpayable",
      "type": "function"
    },
    {
      "inputs": [
        {
          "internalType": "string",
          "name": "_name",
          "type": "string"
        },
        {
          "internalType": "string",
          "name": "_password",
          "type": "string"
        },
        {
          "internalType": "string",
          "name": "_avatar",
          "type": "string"
        },
        {
          "internalType": "string",
          "name": "_bio",
          "type": "string"
        }
      ],
      "name": "registerUser",
      "outputs": [],
      "stateMutability": "nonpayable",
      "type": "function"
    },
    {
      "inputs": [],
      "name": "renounceOwnership",
      "outputs": [],
      "stateMutability": "nonpayable",
      "type": "function"
    },
    {
      "inputs": [
        {
          "internalType": "uint256",
          "name": "tokenId",
          "type": "uint256"
        },
        {
          "internalType": "uint256",
          "name": "salePrice",
          "type": "uint256"
        }
      ],
      "name": "royaltyInfo",
      "outputs": [
        {
          "internalType": "address",
          "name": "",
          "type": "address"
        },
        {
          "internalType": "uint256",
          "name": "",
          "type": "uint256"
        }
      ],
      "stateMutability": "view",
      "type": "function"
    },
    {
      "inputs": [
        {
          "internalType": "address",
          "name": "from",
          "type": "address"
        },
        {
          "internalType": "address",
          "name": "to",
          "type": "address"
        },
        {
          "internalType": "uint256",
          "name": "tokenId",
          "type": "uint256"
        }
      ],
      "name": "safeTransferFrom",
      "outputs": [],
      "stateMutability": "nonpayable",
      "type": "function"
    },
    {
      "inputs": [
        {
          "internalType": "address",
          "name": "from",
          "type": "address"
        },
        {
          "internalType": "address",
          "name": "to",
          "type": "address"
        },
        {
          "internalType": "uint256",
          "name": "tokenId",
          "type": "uint256"
        },
        {
          "internalType": "bytes",
          "name": "data",
          "type": "bytes"
        }
      ],
      "name": "safeTransferFrom",
      "outputs": [],
      "stateMutability": "nonpayable",
      "type": "function"
    },
    {
      "inputs": [
        {
          "internalType": "address",
          "name": "operator",
          "type": "address"
        },
        {
          "internalType": "bool",
          "name": "approved",
          "type": "bool"
        }
      ],
      "name": "setApprovalForAll",
      "outputs": [],
      "stateMutability": "nonpayable",
      "type": "function"
    },
    {
      "inputs": [
        {
          "internalType": "uint256",
          "name": "_newListingFeePercentage",
          "type": "uint256"
        }
      ],
      "name": "setListingFeePercentage",
      "outputs": [],
      "stateMutability": "nonpayable",
      "type": "function"
    },
    {
      "inputs": [
        {
          "internalType": "bytes4",
          "name": "interfaceId",
          "type": "bytes4"
        }
      ],
      "name": "supportsInterface",
      "outputs": [
        {
          "internalType": "bool",
          "name": "",
          "type": "bool"
        }
      ],
      "stateMutability": "view",
      "type": "function"
    },
    {
      "inputs": [],
      "name": "symbol",
      "outputs": [
        {
          "internalType": "string",
          "name": "",
          "type": "string"
        }
      ],
      "stateMutability": "view",
      "type": "function"
    },
    {
      "inputs": [
        {
          "internalType": "uint256",
          "name": "index",
          "type": "uint256"
        }
      ],
      "name": "tokenByIndex",
      "outputs": [
        {
          "internalType": "uint256",
          "name": "",
          "type": "uint256"
        }
      ],
      "stateMutability": "view",
      "type": "function"
    },
    {
      "inputs": [
        {
          "internalType": "address",
          "name": "owner",
          "type": "address"
        },
        {
          "internalType": "uint256",
          "name": "index",
          "type": "uint256"
        }
      ],
      "name": "tokenOfOwnerByIndex",
      "outputs": [
        {
          "internalType": "uint256",
          "name": "",
          "type": "uint256"
        }
      ],
      "stateMutability": "view",
      "type": "function"
    },
    {
      "inputs": [
        {
          "internalType": "uint256",
          "name": "tokenId",
          "type": "uint256"
        }
      ],
      "name": "tokenURI",
      "outputs": [
        {
          "internalType": "string",
          "name": "",
          "type": "string"
        }
      ],
      "stateMutability": "view",
      "type": "function"
    },
    {
      "inputs": [],
      "name": "totalFeesCollected",
      "outputs": [
        {
          "internalType": "uint256",
          "name": "",
          "type": "uint256"
        }
      ],
      "stateMutability": "view",
      "type": "function"
    },
    {
      "inputs": [],
      "name": "totalSupply",
      "outputs": [
        {
          "internalType": "uint256",
          "name": "",
          "type": "uint256"
        }
      ],
      "stateMutability": "view",
      "type": "function"
    },
    {
      "inputs": [
        {
          "internalType": "address",
          "name": "from",
          "type": "address"
        },
        {
          "internalType": "address",
          "name": "to",
          "type": "address"
        },
        {
          "internalType": "uint256",
          "name": "tokenId",
          "type": "uint256"
        }
      ],
      "name": "transferFrom",
      "outputs": [],
      "stateMutability": "nonpayable",
      "type": "function"
    },
    {
      "inputs": [
        {
          "internalType": "address",
          "name": "newOwner",
          "type": "address"
        }
      ],
      "name": "transferOwnership",
      "outputs": [],
      "stateMutability": "nonpayable",
      "type": "function"
    },
    {
      "inputs": [
        {
          "internalType": "uint256",
          "name": "tokenId",
          "type": "uint256"
        }
      ],
      "name": "unlistEducationalResource",
      "outputs": [],
      "stateMutability": "nonpayable",
      "type": "function"
    },
    {
      "inputs": [
        {
          "internalType": "uint256",
          "name": "newPercentage",
          "type": "uint256"
        }
      ],
      "name": "updateListingFeePercentage",
      "outputs": [],
      "stateMutability": "nonpayable",
      "type": "function"
    },
    {
      "inputs": [
        {
          "internalType": "string",
          "name": "_newpassword",
          "type": "string"
        },
        {
          "internalType": "string",
          "name": "_password",
          "type": "string"
        }
      ],
      "name": "updatePassword",
      "outputs": [],
      "stateMutability": "nonpayable",
      "type": "function"
    },
    {
      "inputs": [
        {
          "internalType": "string",
          "name": "avatar",
          "type": "string"
        },
        {
          "internalType": "string",
          "name": "bio",
          "type": "string"
        }
      ],
      "name": "updateUserInfo",
      "outputs": [],
      "stateMutability": "nonpayable",
      "type": "function"
    },
    {
      "inputs": [
        {
          "internalType": "address",
          "name": "userAddress",
          "type": "address"
        },
        {
          "internalType": "string",
          "name": "userName",
          "type": "string"
        },
        {
          "internalType": "string",
          "name": "password",
          "type": "string"
        }
      ],
      "name": "verifyPwd",
      "outputs": [
        {
          "internalType": "bool",
          "name": "",
          "type": "bool"
        },
        {
          "internalType": "bool",
          "name": "",
          "type": "bool"
        }
      ],
      "stateMutability": "view",
      "type": "function"
    },
    {
      "inputs": [],
      "name": "withdrawFees",
      "outputs": [],
      "stateMutability": "nonpayable",
      "type": "function"
    }
  ],
  "transactionHash": "0x16e56e4269c31c6561f1524b3caf8282333e11108a88ff0ef7bb3c9f7208850c",
  "args": [],
  "numDeployments": 10,
  "solcInputHash": "b7b3f9df314b28465282c40d344fd0ed",
  "bytecode": "0x608060405260fa6017553480156200001657600080fd5b506040518060400160405280600f81526020016e596f7572436f6c6c65637469626c6560881b81525060405180604001604052806002815260200161262360f11b81525081600290816200006b91906200019d565b5060036200007a82826200019d565b5050506200009762000091620000a260201b60201c565b620000a6565b6001600e5562000269565b3390565b600d80546001600160a01b038381166001600160a01b0319831681179093556040519116919082907f8be0079c531659141344cd1fd0a4f28419497f9722a3daafe3b4186f6b6457e090600090a35050565b634e487b7160e01b600052604160045260246000fd5b600181811c908216806200012357607f821691505b6020821081036200014457634e487b7160e01b600052602260045260246000fd5b50919050565b601f8211156200019857600081815260208120601f850160051c81016020861015620001735750805b601f850160051c820191505b8181101562000194578281556001016200017f565b5050505b505050565b81516001600160401b03811115620001b957620001b9620000f8565b620001d181620001ca84546200010e565b846200014a565b602080601f831160018114620002095760008415620001f05750858301515b600019600386901b1c1916600185901b17855562000194565b600085815260208120601f198616915b828110156200023a5788860151825594840194600190910190840162000219565b5085821015620002595787850151600019600388901b60f8161c191681555b5050505050600190811b01905550565b615f1c80620002796000396000f3fe6080604052600436106102885760003560e01c806360c6d8ae1161015a578063a4436aba116100c1578063d8be30fc1161007a578063d8be30fc146107dc578063d8d84f8f1461080c578063deb82ed91461082c578063e985e9c514610842578063f2fde38b1461088b578063fe532d10146108ab57600080fd5b8063a4436aba146106eb578063b88d4fde14610718578063bf06eda614610738578063c87b56dd1461076f578063ccfb9ba61461078f578063cdfbb351146107bc57600080fd5b806387fe9c831161011357806387fe9c831461062b5780638da5cb5b1461064b57806391adb1bb1461066957806393e54a561461069657806395d89b41146106b6578063a22cb465146106cb57600080fd5b806360c6d8ae146105805780636352211e146105965780636c6db136146105b657806370a08231146105d6578063715018a6146105f6578063813d7e871461060b57600080fd5b80631f45dbf3116101fe57806342842e0e116101b757806342842e0e146104e5578063476343ee146105055780634b3fcab51461051a5780634eb3a9e01461053a5780634f6ccce71461054d5780635f79cdfe1461056d57600080fd5b80631f45dbf31461041957806323b872dd146104465780632a55205a146104665780632af356c2146102d75780632cd8bf84146104a55780632f745c59146104c557600080fd5b80630800e300116102505780630800e30014610349578063081812fc146103765780630888de39146103ae578063095ea7b3146103c457806314ba9749146103e457806318160ddd1461040457600080fd5b8063010a38f51461028d578063012cc1e2146102b557806301bb8cc5146102d757806301ffc9a7146102f757806306fdde0314610327575b600080fd5b34801561029957600080fd5b506102a26108cb565b6040519081526020015b60405180910390f35b3480156102c157600080fd5b506102d56102d03660046150bf565b6108db565b005b3480156102e357600080fd5b506102d56102f23660046150bf565b6109df565b34801561030357600080fd5b506103176103123660046150ee565b610a31565b60405190151581526020016102ac565b34801561033357600080fd5b5061033c610a42565b6040516102ac919061515b565b34801561035557600080fd5b506103696103643660046150bf565b610ad4565b6040516102ac919061521e565b34801561038257600080fd5b506103966103913660046150bf565b610c49565b6040516001600160a01b0390911681526020016102ac565b3480156103ba57600080fd5b506102a260175481565b3480156103d057600080fd5b506102d56103df36600461524d565b610c70565b3480156103f057600080fd5b506102d56103ff366004615277565b610d8a565b34801561041057600080fd5b50600a546102a2565b34801561042557600080fd5b50610439610434366004615299565b610ee0565b6040516102ac91906152b4565b34801561045257600080fd5b506102d56104613660046152f8565b61108e565b34801561047257600080fd5b50610486610481366004615277565b6110bf565b604080516001600160a01b0390931683526020830191909152016102ac565b3480156104b157600080fd5b506102a26104c03660046150bf565b61116b565b3480156104d157600080fd5b506102a26104e036600461524d565b611188565b3480156104f157600080fd5b506102d56105003660046152f8565b61121e565b34801561051157600080fd5b506102d5611239565b34801561052657600080fd5b506102d56105353660046153df565b61131c565b6102d56105483660046150bf565b61137d565b34801561055957600080fd5b506102a26105683660046150bf565b61160d565b6102d561057b366004615277565b6116a0565b34801561058c57600080fd5b506102a260115481565b3480156105a257600080fd5b506103966105b13660046150bf565b6118b1565b3480156105c257600080fd5b506102d56105d1366004615442565b611911565b3480156105e257600080fd5b506102a26105f1366004615299565b611ac1565b34801561060257600080fd5b506102d5611b47565b34801561061757600080fd5b506102d56106263660046150bf565b611b5b565b34801561063757600080fd5b506102a26106463660046154a8565b611c03565b34801561065757600080fd5b50600d546001600160a01b0316610396565b34801561067557600080fd5b50610689610684366004615299565b611f8b565b6040516102ac91906157dd565b3480156106a257600080fd5b506102d56106b136600461583f565b612656565b3480156106c257600080fd5b5061033c612792565b3480156106d757600080fd5b506102d56106e63660046158eb565b6127a1565b3480156106f757600080fd5b5061070b6107063660046150bf565b6127b0565b6040516102ac9190615927565b34801561072457600080fd5b506102d561073336600461597c565b612a1a565b34801561074457600080fd5b506107586107533660046159eb565b612a52565b6040805192151583529015156020830152016102ac565b34801561077b57600080fd5b5061033c61078a3660046150bf565b612cd1565b34801561079b57600080fd5b506107af6107aa3660046150bf565b612cdc565b6040516102ac9190615a5e565b3480156107c857600080fd5b506102d56107d73660046153df565b6132ce565b3480156107e857600080fd5b506107fc6107f7366004615299565b613377565b6040516102ac9493929190615a71565b34801561081857600080fd5b50610439610827366004615abb565b6135b5565b34801561083857600080fd5b506102a26103e881565b34801561084e57600080fd5b5061031761085d366004615aef565b6001600160a01b03918216600090815260076020908152604080832093909416825291909152205460ff1690565b34801561089757600080fd5b506102d56108a6366004615299565b613625565b3480156108b757600080fd5b506106896108c6366004615299565b61369b565b60006108d6600f5490565b905090565b6000818152601960205260409020600101546001600160a01b03166108ff57600080fd5b6000818152601a6020908152604080832033845290915290205460ff161561092657600080fd5b600081815260196020526040902060010154336001600160a01b039091160361094e57600080fd5b6000818152601960205260408120600401805460019290610970908490615b38565b90915550506000818152601a6020908152604080832033808552908352818420805460ff19166001179055848452601983529281902060040154905190815283917f74193480b729de5bd62f8dc477d123a18811cce036b34c0747a1d0f1e8a2a65e910160405180910390a350565b6109e7613d5e565b6103e88111156109f657600080fd5b60178190556040518181527f7b7b531d40c1aa89dac7360f225e5660c63799638af64655583d3ec191be11e29060200160405180910390a150565b6000610a3c82613db8565b92915050565b606060028054610a5190615b4b565b80601f0160208091040260200160405190810160405280929190818152602001828054610a7d90615b4b565b8015610aca5780601f10610a9f57610100808354040283529160200191610aca565b820191906000526020600020905b815481529060010190602001808311610aad57829003601f168201915b5050505050905090565b610adc614e6e565b6000828152601960205260409020600101546001600160a01b0316610b0057600080fd5b600082815260196020908152604091829020825160e0810184528154815260018201546001600160a01b0316928101929092526002810180549293919291840191610b4a90615b4b565b80601f0160208091040260200160405190810160405280929190818152602001828054610b7690615b4b565b8015610bc35780601f10610b9857610100808354040283529160200191610bc3565b820191906000526020600020905b815481529060010190602001808311610ba657829003601f168201915b50505050508152602001600382015481526020016004820154815260200160058201805480602002602001604051908101604052809291908181526020018280548015610c2f57602002820191906000526020600020905b815481526020019060010190808311610c1b575b505050505081526020016006820154815250509050919050565b6000610c5482613dc3565b506000908152600660205260409020546001600160a01b031690565b6000610c7b826118b1565b9050806001600160a01b0316836001600160a01b031603610ced5760405162461bcd60e51b815260206004820152602160248201527f4552433732313a20617070726f76616c20746f2063757272656e74206f776e656044820152603960f91b60648201526084015b60405180910390fd5b336001600160a01b0382161480610d095750610d09813361085d565b610d7b5760405162461bcd60e51b815260206004820152603d60248201527f4552433732313a20617070726f76652063616c6c6572206973206e6f7420746f60448201527f6b656e206f776e6572206f7220617070726f76656420666f7220616c6c0000006064820152608401610ce4565b610d858383613e22565b505050565b60018110158015610d9c575060058111155b610da557600080fd5b6000805b60008481526013602081905260409091200154811015610e1f57600084815260136020819052604090912001805433919083908110610dea57610dea615b85565b6000918252602090912001546001600160a01b031603610e0d5760019150610e1f565b80610e1781615b9b565b915050610da9565b508015610e5e5760405162461bcd60e51b815260206004820152600d60248201526c105b1c9958591e481c985d1959609a1b6044820152606401610ce4565b60008381526013602052604081206009018054849290610e7f908490615b38565b90915550506000838152601360205260408120600a01805460019290610ea6908490615b38565b9091555050506000918252506013602081815260408320909101805460018101825590835291200180546001600160a01b03191633179055565b60606000610eed600f5490565b6001600160401b03811115610f0457610f04615334565b604051908082528060200260200182016040528015610f2d578160200160208202803683370190505b509050600060015b600f548111610fea576000818152601360205260408120905b600f820154811015610fd557866001600160a01b031682600f018281548110610f7957610f79615b85565b6000918252602090912001546001600160a01b031603610fc35782858581518110610fa657610fa6615b85565b602090810291909101015283610fbb81615b9b565b945050610fd5565b80610fcd81615b9b565b915050610f4e565b50508080610fe290615b9b565b915050610f35565b506000816001600160401b0381111561100557611005615334565b60405190808252806020026020018201604052801561102e578160200160208202803683370190505b50905060005b828110156110855783818151811061104e5761104e615b85565b602002602001015182828151811061106857611068615b85565b60209081029190910101528061107d81615b9b565b915050611034565b50949350505050565b6110983382613e90565b6110b45760405162461bcd60e51b8152600401610ce490615bb4565b610d85838383613f0f565b60008281526001602090815260408083208151808301909252546001600160a01b038116808352600160a01b9091046001600160601b03169282019290925282916111345750604080518082019091526000546001600160a01b0381168252600160a01b90046001600160601b031660208201525b602081015160009061271090611153906001600160601b031687615c01565b61115d9190615c18565b915196919550909350505050565b60006127106017548361117e9190615c01565b610a3c9190615c18565b600061119383611ac1565b82106111f55760405162461bcd60e51b815260206004820152602b60248201527f455243373231456e756d657261626c653a206f776e657220696e646578206f7560448201526a74206f6620626f756e647360a81b6064820152608401610ce4565b506001600160a01b03919091166000908152600860209081526040808320938352929052205490565b610d8583838360405180602001604052806000815250612a1a565b611241613d5e565b60006011541161125057600080fd5b601180546000918290559061126d600d546001600160a01b031690565b6001600160a01b03168260405160006040518083038185875af1925050503d80600081146112b7576040519150601f19603f3d011682016040523d82523d6000602084013e6112bc565b606091505b50509050806112ca57600080fd5b600d546001600160a01b03166001600160a01b03167fc0819c13be868895eb93e40eaceb96de976442fa1d404e5c55f14bb65a8c489a8360405161131091815260200190565b60405180910390a25050565b336000908152601260205260409020805461133690615b4b565b905060000361134457600080fd5b3360009081526012602052604090206003016113608382615c88565b50336000908152601260205260409020600401610d858282615c88565b611385614080565b600081815260136020526040902060020154600160a01b900460ff166113aa57600080fd5b6000818152601360205260409020600101543410156113c857600080fd5b600081815260136020526040902060020154336001600160a01b03909116036113f057600080fd5b60005b6000828152601360205260409020600f01548110156114b7576000828152601360205260409020600f0180543391908390811061143257611432615b85565b6000918252602090912001546001600160a01b0316036114a55760405162461bcd60e51b815260206004820152602860248201527f596f75206861766520616c7265616479207075726368617365642074686973206044820152677265736f7572636560c01b6064820152608401610ce4565b806114af81615b9b565b9150506113f3565b5060008181526013602052604081206008018054600192906114da908490615b38565b90915550506000818152601360208181526040808420600f81018054600181810183559187528487200180546001600160a01b031916339081179091558652601684528286208054808301825590875284872001879055868652939092526002820154929091015490516001600160a01b03929092169281156108fc029290818181858888f19350505050158015611576573d6000803e3d6000fd5b50600061158260105490565b9050611592601080546001019055565b6000828152601360209081526040918290206002810154600190910154835190815242928101929092529181018390526001600160a01b0390911690339084907f725ab672573b7f2e0f0f193920dbee98941ec549e9b36cf3bfc3cc83e51ae1ae9060600160405180910390a45061160a6001600e55565b50565b6000611618600a5490565b821061167b5760405162461bcd60e51b815260206004820152602c60248201527f455243373231456e756d657261626c653a20676c6f62616c20696e646578206f60448201526b7574206f6620626f756e647360a01b6064820152608401610ce4565b600a828154811061168e5761168e615b85565b90600052602060002001549050919050565b600081116116f05760405162461bcd60e51b815260206004820152601c60248201527f5072696365206d7573742062652067726561746572207468616e2030000000006044820152606401610ce4565b336116fa836118b1565b6001600160a01b0316146117485760405162461bcd60e51b81526020600482015260156024820152742cb7ba9030b932903737ba103a34329037bbb732b960591b6044820152606401610ce4565b600082815260136020526040902060020154600160a01b900460ff16156117a95760405162461bcd60e51b815260206004820152601560248201527419591d481a5cc8185b1c9958591e481b1a5cdd1959605a1b6044820152606401610ce4565b60006117b48261116b565b90506117bf8261116b565b34101561180e5760405162461bcd60e51b815260206004820152601860248201527f496e73756666696369656e74206c697374696e672066656500000000000000006044820152606401610ce4565b80601160008282546118209190615b38565b9091555050600083815260136020526040812060018101849055600201805460ff60a01b1916600160a01b17905561185760105490565b9050611867601080546001019055565b60408051848152426020820152908101829052339085907fdc69aa9aa1dd4abfb7a3d6b64d72382a2a4d38700d6b5c3d5784e23eb82be3379060600160405180910390a350505050565b6000818152600460205260408120546001600160a01b031680610a3c5760405162461bcd60e51b8152602060048201526018602482015277115490cdcc8c4e881a5b9d985b1a59081d1bdad95b88125160421b6044820152606401610ce4565b600082511161191f57600080fd5b6000838152600460205260409020546001600160a01b031661194057600080fd5b8015611986576000818152601960205260409020600101546001600160a01b031661196a57600080fd5b6000818152601960205260409020600601541561198657600080fd5b611994601880546001019055565b600061199f60185490565b60008181526019602052604090208181556001810180546001600160a01b03191633179055909150600281016119d58582615c88565b5042600382015560006004820155600681018390558215611a435760008381526019602090815260408083206005018054600181018255908452918320909101849055513391849186917f773a33a5a4242f5ff076510cef32d710535badf6e057fe93491705ffb9cf29b191a45b60008581526013602090815260408220600b018054600181810183559184529190922001839055611a759033906140d9565b336001600160a01b031682867f92eb5433849a5a2a1922dadaf613eff78bb7de4173779f8d4683b877aac7260f8742604051611ab2929190615d47565b60405180910390a45050505050565b60006001600160a01b038216611b2b5760405162461bcd60e51b815260206004820152602960248201527f4552433732313a2061646472657373207a65726f206973206e6f7420612076616044820152683634b21037bbb732b960b91b6064820152608401610ce4565b506001600160a01b031660009081526005602052604090205490565b611b4f613d5e565b611b596000614155565b565b60008181526013602052604090206002810154600160a01b900460ff16611b8157600080fd5b33611b8b836118b1565b6001600160a01b031614611b9e57600080fd5b60028101805460ff60a01b19169055600060018083019190915560108054918201905560408051828152426020820152339185917f40516db99aa3df4a6f96ef1158a18bd27c30a7b4e719738adc639d18a00369aa91015b60405180910390a3505050565b6000611c13600f80546001019055565b6000611c1e600f5490565b9050611c2a89826141a7565b611c3481886141c1565b611c3f818a8861428c565b6000611c4961439a565b88604051602001611c5b929190615d69565b6040516020818303038152906040529050601485604051611c7c9190615d98565b9081526040805160209281900383018120805460018082018355600092835285832090910187905533825260158552838220805491820181558252848220018690556102a0820183528582528382018190526001600160a01b038e168284015260608201819052608082018d905260a0820185905260c082018a905260e082018990526101008201889052610120820181905261014082018190526101608201819052825181815280850184526101808301526101a082018190526101c08201819052825181815280850184526101e083015282518181528085018452610200830152426102208301526102408201819052825181815293840190925291610260830191611d9a565b6060815260200190600190039081611d855790505b5081526020016000604051908082528060200260200182016040528015611dcb578160200160208202803683370190505b509052600083815260136020908152604091829020835181559083015160018201559082015160028201805460608501511515600160a01b026001600160a81b03199091166001600160a01b039093169290921791909117905560808201516003820190611e399082615c88565b5060a08201516004820190611e4e9082615c88565b5060c08201516005820190611e639082615c88565b5060e08201516006820190611e789082615c88565b506101008201516007820190611e8e9082615c88565b5061012082015160088201556101408201516009820155610160820151600a8201556101808201518051611ecc91600b840191602090910190614eb4565b506101a0820151600c8201805460ff19169115159190911790556101c0820151600d8201556101e08201518051611f0d91600e840191602090910190614eff565b506102008201518051611f2a91600f840191602090910190614eff565b50610220820151601082015561024082015160118201556102608201518051611f5d916012840191602090910190614f54565b506102808201518051611f7a916013840191602090910190614eff565b50929b9a5050505050505050505050565b6001600160a01b038116600090815260156020526040812054606091816001600160401b03811115611fbf57611fbf615334565b604051908082528060200260200182016040528015611ff857816020015b611fe5614fa6565b815260200190600190039081611fdd5790505b50905060005b8281101561264e576001600160a01b038516600090815260156020526040812080548390811061203057612030615b85565b6000918252602080832091909101548083526013825260409283902083516102a0810185528154815260018201549381019390935260028101546001600160a01b03811694840194909452600160a01b90930460ff161515606083015260038301805491945091929160808401916120a790615b4b565b80601f01602080910402602001604051908101604052809291908181526020018280546120d390615b4b565b80156121205780601f106120f557610100808354040283529160200191612120565b820191906000526020600020905b81548152906001019060200180831161210357829003601f168201915b5050505050815260200160048201805461213990615b4b565b80601f016020809104026020016040519081016040528092919081815260200182805461216590615b4b565b80156121b25780601f10612187576101008083540402835291602001916121b2565b820191906000526020600020905b81548152906001019060200180831161219557829003601f168201915b505050505081526020016005820180546121cb90615b4b565b80601f01602080910402602001604051908101604052809291908181526020018280546121f790615b4b565b80156122445780601f1061221957610100808354040283529160200191612244565b820191906000526020600020905b81548152906001019060200180831161222757829003601f168201915b5050505050815260200160068201805461225d90615b4b565b80601f016020809104026020016040519081016040528092919081815260200182805461228990615b4b565b80156122d65780601f106122ab576101008083540402835291602001916122d6565b820191906000526020600020905b8154815290600101906020018083116122b957829003601f168201915b505050505081526020016007820180546122ef90615b4b565b80601f016020809104026020016040519081016040528092919081815260200182805461231b90615b4b565b80156123685780601f1061233d57610100808354040283529160200191612368565b820191906000526020600020905b81548152906001019060200180831161234b57829003601f168201915b505050505081526020016008820154815260200160098201548152602001600a8201548152602001600b82018054806020026020016040519081016040528092919081815260200182805480156123de57602002820191906000526020600020905b8154815260200190600101908083116123ca575b50505050508152602001600c820160009054906101000a900460ff16151515158152602001600d8201548152602001600e820180548060200260200160405190810160405280929190818152602001828054801561246557602002820191906000526020600020905b81546001600160a01b03168152600190910190602001808311612447575b50505050508152602001600f82018054806020026020016040519081016040528092919081815260200182805480156124c757602002820191906000526020600020905b81546001600160a01b031681526001909101906020018083116124a9575b50505050508152602001601082015481526020016011820154815260200160128201805480602002602001604051908101604052809291908181526020016000905b828210156125b557838290600052602060002001805461252890615b4b565b80601f016020809104026020016040519081016040528092919081815260200182805461255490615b4b565b80156125a15780601f10612576576101008083540402835291602001916125a1565b820191906000526020600020905b81548152906001019060200180831161258457829003601f168201915b505050505081526020019060010190612509565b5050505081526020016013820180548060200260200160405190810160405280929190818152602001828054801561261657602002820191906000526020600020905b81546001600160a01b031681526001909101906020018083116125f8575b50505050508152505083838151811061263157612631615b85565b6020026020010181905250508061264790615b9b565b9050611ffe565b509392505050565b600084511161266457600080fd5b336000908152601260205260409020805461267e90615b4b565b1590506126cd5760405162461bcd60e51b815260206004820152601760248201527f5573657220616c726561647920726567697374657265640000000000000000006044820152606401610ce4565b6040518060c001604052808581526020016126e9856020015190565b815233602080830182905260408084018790526060840186905260006080909401849052918352601290529020815181906127249082615c88565b506020820151600182015560408201516002820180546001600160a01b0319166001600160a01b03909216919091179055606082015160038201906127699082615c88565b506080820151600482019061277e9082615c88565b5060a0820151816005015590505050505050565b606060038054610a5190615b4b565b6127ac3383836143ba565b5050565b6000818152601360209081526040808320600b0180548251818502810185019093528083526060949383018282801561280857602002820191906000526020600020905b8154815260200190600101908083116127f4575b50505050509050600081516001600160401b0381111561282a5761282a615334565b60405190808252806020026020018201604052801561286357816020015b612850614e6e565b8152602001906001900390816128485790505b50905060005b825181101561264e576019600084838151811061288857612888615b85565b602002602001015181526020019081526020016000206040518060e0016040529081600082015481526020016001820160009054906101000a90046001600160a01b03166001600160a01b03166001600160a01b031681526020016002820180546128f290615b4b565b80601f016020809104026020016040519081016040528092919081815260200182805461291e90615b4b565b801561296b5780601f106129405761010080835404028352916020019161296b565b820191906000526020600020905b81548152906001019060200180831161294e57829003601f168201915b505050505081526020016003820154815260200160048201548152602001600582018054806020026020016040519081016040528092919081815260200182805480156129d757602002820191906000526020600020905b8154815260200190600101908083116129c3575b505050505081526020016006820154815250508282815181106129fc576129fc615b85565b60200260200101819052508080612a1290615b9b565b915050612869565b612a243383613e90565b612a405760405162461bcd60e51b8152600401610ce490615bb4565b612a4c84848484614480565b50505050565b6001600160a01b03831660009081526012602052604081208054829190612a7890615b4b565b9050600003612a8657600080fd5b6001600160a01b038516600090815260126020526040808220815160c08101909252805482908290612ab790615b4b565b80601f0160208091040260200160405190810160405280929190818152602001828054612ae390615b4b565b8015612b305780601f10612b0557610100808354040283529160200191612b30565b820191906000526020600020905b815481529060010190602001808311612b1357829003601f168201915b50505091835250506001820154602082015260028201546001600160a01b03166040820152600382018054606090920191612b6a90615b4b565b80601f0160208091040260200160405190810160405280929190818152602001828054612b9690615b4b565b8015612be35780601f10612bb857610100808354040283529160200191612be3565b820191906000526020600020905b815481529060010190602001808311612bc657829003601f168201915b50505050508152602001600482018054612bfc90615b4b565b80601f0160208091040260200160405190810160405280929190818152602001828054612c2890615b4b565b8015612c755780601f10612c4a57610100808354040283529160200191612c75565b820191906000526020600020905b815481529060010190602001808311612c5857829003601f168201915b5050505050815260200160058201548152505090506000612c9a8260000151876144b3565b90506000612cb68360200151612cb1886020015190565b61450c565b9050818015612cc25750805b98600098509650505050505050565b6060610a3c82614546565b612ce4614fa6565b60008281526013602090815260409182902082516102a0810184528154815260018201549281019290925260028101546001600160a01b03811693830193909352600160a01b90920460ff1615156060820152600382018054919291608084019190612d4f90615b4b565b80601f0160208091040260200160405190810160405280929190818152602001828054612d7b90615b4b565b8015612dc85780601f10612d9d57610100808354040283529160200191612dc8565b820191906000526020600020905b815481529060010190602001808311612dab57829003601f168201915b50505050508152602001600482018054612de190615b4b565b80601f0160208091040260200160405190810160405280929190818152602001828054612e0d90615b4b565b8015612e5a5780601f10612e2f57610100808354040283529160200191612e5a565b820191906000526020600020905b815481529060010190602001808311612e3d57829003601f168201915b50505050508152602001600582018054612e7390615b4b565b80601f0160208091040260200160405190810160405280929190818152602001828054612e9f90615b4b565b8015612eec5780601f10612ec157610100808354040283529160200191612eec565b820191906000526020600020905b815481529060010190602001808311612ecf57829003601f168201915b50505050508152602001600682018054612f0590615b4b565b80601f0160208091040260200160405190810160405280929190818152602001828054612f3190615b4b565b8015612f7e5780601f10612f5357610100808354040283529160200191612f7e565b820191906000526020600020905b815481529060010190602001808311612f6157829003601f168201915b50505050508152602001600782018054612f9790615b4b565b80601f0160208091040260200160405190810160405280929190818152602001828054612fc390615b4b565b80156130105780601f10612fe557610100808354040283529160200191613010565b820191906000526020600020905b815481529060010190602001808311612ff357829003601f168201915b505050505081526020016008820154815260200160098201548152602001600a8201548152602001600b820180548060200260200160405190810160405280929190818152602001828054801561308657602002820191906000526020600020905b815481526020019060010190808311613072575b50505050508152602001600c820160009054906101000a900460ff16151515158152602001600d8201548152602001600e820180548060200260200160405190810160405280929190818152602001828054801561310d57602002820191906000526020600020905b81546001600160a01b031681526001909101906020018083116130ef575b50505050508152602001600f820180548060200260200160405190810160405280929190818152602001828054801561316f57602002820191906000526020600020905b81546001600160a01b03168152600190910190602001808311613151575b50505050508152602001601082015481526020016011820154815260200160128201805480602002602001604051908101604052809291908181526020016000905b8282101561325d5783829060005260206000200180546131d090615b4b565b80601f01602080910402602001604051908101604052809291908181526020018280546131fc90615b4b565b80156132495780601f1061321e57610100808354040283529160200191613249565b820191906000526020600020905b81548152906001019060200180831161322c57829003601f168201915b5050505050815260200190600101906131b1565b505050508152602001601382018054806020026020016040519081016040528092919081815260200182805480156132be57602002820191906000526020600020905b81546001600160a01b031681526001909101906020018083116132a0575b5050505050815250509050919050565b33600090815260126020526040902080546132e890615b4b565b90506000036132f657600080fd5b3360009081526012602052604081206001015461331890612cb1846020015190565b90508061335a5760405162461bcd60e51b815260206004820152601060248201526f125b9d985b1a59081c185cdcdddbdc9960821b6044820152606401610ce4565b602083015133600090815260126020526040902060010155505050565b60608060006060600060126000876001600160a01b03166001600160a01b031681526020019081526020016000206040518060c00160405290816000820180546133c090615b4b565b80601f01602080910402602001604051908101604052809291908181526020018280546133ec90615b4b565b80156134395780601f1061340e57610100808354040283529160200191613439565b820191906000526020600020905b81548152906001019060200180831161341c57829003601f168201915b50505091835250506001820154602082015260028201546001600160a01b0316604082015260038201805460609092019161347390615b4b565b80601f016020809104026020016040519081016040528092919081815260200182805461349f90615b4b565b80156134ec5780601f106134c1576101008083540402835291602001916134ec565b820191906000526020600020905b8154815290600101906020018083116134cf57829003601f168201915b5050505050815260200160048201805461350590615b4b565b80601f016020809104026020016040519081016040528092919081815260200182805461353190615b4b565b801561357e5780601f106135535761010080835404028352916020019161357e565b820191906000526020600020905b81548152906001019060200180831161356157829003601f168201915b5050509183525050600591909101546020909101528051608082015160a08301516060909301519199909850919650945092505050565b60606014826040516135c79190615d98565b908152604080519182900360209081018320805480830285018301909352828452919083018282801561361957602002820191906000526020600020905b815481526020019060010190808311613605575b50505050509050919050565b61362d613d5e565b6001600160a01b0381166136925760405162461bcd60e51b815260206004820152602660248201527f4f776e61626c653a206e6577206f776e657220697320746865207a65726f206160448201526564647265737360d01b6064820152608401610ce4565b61160a81614155565b6001600160a01b038116600090815260166020526040812054606091816001600160401b038111156136cf576136cf615334565b60405190808252806020026020018201604052801561370857816020015b6136f5614fa6565b8152602001906001900390816136ed5790505b50905060005b8281101561264e576001600160a01b038516600090815260166020526040812080548390811061374057613740615b85565b6000918252602080832091909101548083526013825260409283902083516102a0810185528154815260018201549381019390935260028101546001600160a01b03811694840194909452600160a01b90930460ff161515606083015260038301805491945091929160808401916137b790615b4b565b80601f01602080910402602001604051908101604052809291908181526020018280546137e390615b4b565b80156138305780601f1061380557610100808354040283529160200191613830565b820191906000526020600020905b81548152906001019060200180831161381357829003601f168201915b5050505050815260200160048201805461384990615b4b565b80601f016020809104026020016040519081016040528092919081815260200182805461387590615b4b565b80156138c25780601f10613897576101008083540402835291602001916138c2565b820191906000526020600020905b8154815290600101906020018083116138a557829003601f168201915b505050505081526020016005820180546138db90615b4b565b80601f016020809104026020016040519081016040528092919081815260200182805461390790615b4b565b80156139545780601f1061392957610100808354040283529160200191613954565b820191906000526020600020905b81548152906001019060200180831161393757829003601f168201915b5050505050815260200160068201805461396d90615b4b565b80601f016020809104026020016040519081016040528092919081815260200182805461399990615b4b565b80156139e65780601f106139bb576101008083540402835291602001916139e6565b820191906000526020600020905b8154815290600101906020018083116139c957829003601f168201915b505050505081526020016007820180546139ff90615b4b565b80601f0160208091040260200160405190810160405280929190818152602001828054613a2b90615b4b565b8015613a785780601f10613a4d57610100808354040283529160200191613a78565b820191906000526020600020905b815481529060010190602001808311613a5b57829003601f168201915b505050505081526020016008820154815260200160098201548152602001600a8201548152602001600b8201805480602002602001604051908101604052809291908181526020018280548015613aee57602002820191906000526020600020905b815481526020019060010190808311613ada575b50505050508152602001600c820160009054906101000a900460ff16151515158152602001600d8201548152602001600e8201805480602002602001604051908101604052809291908181526020018280548015613b7557602002820191906000526020600020905b81546001600160a01b03168152600190910190602001808311613b57575b50505050508152602001600f8201805480602002602001604051908101604052809291908181526020018280548015613bd757602002820191906000526020600020905b81546001600160a01b03168152600190910190602001808311613bb9575b50505050508152602001601082015481526020016011820154815260200160128201805480602002602001604051908101604052809291908181526020016000905b82821015613cc5578382906000526020600020018054613c3890615b4b565b80601f0160208091040260200160405190810160405280929190818152602001828054613c6490615b4b565b8015613cb15780601f10613c8657610100808354040283529160200191613cb1565b820191906000526020600020905b815481529060010190602001808311613c9457829003601f168201915b505050505081526020019060010190613c19565b50505050815260200160138201805480602002602001604051908101604052809291908181526020018280548015613d2657602002820191906000526020600020905b81546001600160a01b03168152600190910190602001808311613d08575b505050505081525050838381518110613d4157613d41615b85565b60200260200101819052505080613d5790615b9b565b905061370e565b600d546001600160a01b03163314611b595760405162461bcd60e51b815260206004820181905260248201527f4f776e61626c653a2063616c6c6572206973206e6f7420746865206f776e65726044820152606401610ce4565b6000610a3c82614641565b6000818152600460205260409020546001600160a01b031661160a5760405162461bcd60e51b8152602060048201526018602482015277115490cdcc8c4e881a5b9d985b1a59081d1bdad95b88125160421b6044820152606401610ce4565b600081815260066020526040902080546001600160a01b0319166001600160a01b0384169081179091558190613e57826118b1565b6001600160a01b03167f8c5be1e5ebec7d5bd14f71427d1e84f3dd0314c0f7b2291e5b200ac8c7c3b92560405160405180910390a45050565b600080613e9c836118b1565b9050806001600160a01b0316846001600160a01b03161480613ee357506001600160a01b0380821660009081526007602090815260408083209388168352929052205460ff165b80613f075750836001600160a01b0316613efc84610c49565b6001600160a01b0316145b949350505050565b826001600160a01b0316613f22826118b1565b6001600160a01b031614613f485760405162461bcd60e51b8152600401610ce490615db4565b6001600160a01b038216613faa5760405162461bcd60e51b8152602060048201526024808201527f4552433732313a207472616e7366657220746f20746865207a65726f206164646044820152637265737360e01b6064820152608401610ce4565b613fb78383836001614666565b826001600160a01b0316613fca826118b1565b6001600160a01b031614613ff05760405162461bcd60e51b8152600401610ce490615db4565b600081815260066020908152604080832080546001600160a01b03199081169091556001600160a01b0387811680865260058552838620805460001901905590871680865283862080546001019055868652600490945282852080549092168417909155905184937fddf252ad1be2c89b69c2b068fc378daa952ba7f163c4a11628f55a4df523b3ef91a4505050565b6002600e54036140d25760405162461bcd60e51b815260206004820152601f60248201527f5265656e7472616e637947756172643a207265656e7472616e742063616c6c006044820152606401610ce4565b6002600e55565b6001600160a01b03821660009081526012602052604081206005018054839290614104908490615b38565b909155505060408051600081526020810183905242918101919091526001600160a01b038316907fc424236d12197e1ec7bea17e53f7631b14e52d78ce30527c0337514923afe0e090606001611310565b600d80546001600160a01b038381166001600160a01b0319831681179093556040519116919082907f8be0079c531659141344cd1fd0a4f28419497f9722a3daafe3b4186f6b6457e090600090a35050565b6127ac828260405180602001604052806000815250614672565b6000828152600460205260409020546001600160a01b031661423c5760405162461bcd60e51b815260206004820152602e60248201527f45524337323155524953746f726167653a2055524920736574206f66206e6f6e60448201526d32bc34b9ba32b73a103a37b5b2b760911b6064820152608401610ce4565b6000828152600c602052604090206142548282615c88565b506040518281527ff8e1a15aba9398e019f0b49df1a4fde98ee17ae345cb5f6b5e2c27f5033e8ce79060200160405180910390a15050565b6127106001600160601b03821611156142fa5760405162461bcd60e51b815260206004820152602a60248201527f455243323938313a20726f79616c7479206665652077696c6c206578636565646044820152692073616c65507269636560b01b6064820152608401610ce4565b6001600160a01b0382166143505760405162461bcd60e51b815260206004820152601b60248201527f455243323938313a20496e76616c696420706172616d657465727300000000006044820152606401610ce4565b6040805180820182526001600160a01b0393841681526001600160601b0392831660208083019182526000968752600190529190942093519051909116600160a01b029116179055565b6060604051806060016040528060228152602001615ec560229139905090565b816001600160a01b0316836001600160a01b03160361441b5760405162461bcd60e51b815260206004820152601960248201527f4552433732313a20617070726f766520746f2063616c6c6572000000000000006044820152606401610ce4565b6001600160a01b03838116600081815260076020908152604080832094871680845294825291829020805460ff191686151590811790915591519182527f17307eab39ab6107e8899845ad3d59bd9653f200f220920489ca2b5937696c319101611bf6565b61448b848484613f0f565b614497848484846146a5565b612a4c5760405162461bcd60e51b8152600401610ce490615df9565b6000816040516020016144c69190615d98565b60405160208183030381529060405280519060200120836040516020016144ed9190615d98565b6040516020818303038152906040528051906020012014905092915050565b60008160405160200161452191815260200190565b60408051601f19818403018152828252805160209182012090830186905291016144ed565b606061455182613dc3565b6000828152600c60205260408120805461456a90615b4b565b80601f016020809104026020016040519081016040528092919081815260200182805461459690615b4b565b80156145e35780601f106145b8576101008083540402835291602001916145e3565b820191906000526020600020905b8154815290600101906020018083116145c657829003601f168201915b5050505050905060006145f461439a565b90508051600003614606575092915050565b815115614638578082604051602001614620929190615d69565b60405160208183030381529060405292505050919050565b613f07846147a6565b60006001600160e01b03198216632483248360e11b1480610a3c5750610a3c8261480d565b612a4c84848484614832565b61467c8383614966565b61468960008484846146a5565b610d855760405162461bcd60e51b8152600401610ce490615df9565b60006001600160a01b0384163b1561479b57604051630a85bd0160e11b81526001600160a01b0385169063150b7a02906146e9903390899088908890600401615e4b565b6020604051808303816000875af1925050508015614724575060408051601f3d908101601f1916820190925261472191810190615e7e565b60015b614781573d808015614752576040519150601f19603f3d011682016040523d82523d6000602084013e614757565b606091505b5080516000036147795760405162461bcd60e51b8152600401610ce490615df9565b805181602001fd5b6001600160e01b031916630a85bd0160e11b149050613f07565b506001949350505050565b60606147b182613dc3565b60006147bb61439a565b905060008151116147db5760405180602001604052806000815250614806565b806147e584614aff565b6040516020016147f6929190615d69565b6040516020818303038152906040525b9392505050565b60006001600160e01b0319821663780e9d6360e01b1480610a3c5750610a3c82614b91565b60018111156148a15760405162461bcd60e51b815260206004820152603560248201527f455243373231456e756d657261626c653a20636f6e7365637574697665207472604482015274185b9cd9995c9cc81b9bdd081cdd5c1c1bdc9d1959605a1b6064820152608401610ce4565b816001600160a01b0385166148fd576148f881600a80546000838152600b60205260408120829055600182018355919091527fc65a7bb8d6351c1cf70c95a316cc6a92839c986682d98bc35f958f4883f9d2a80155565b614920565b836001600160a01b0316856001600160a01b031614614920576149208582614bd1565b6001600160a01b03841661493c5761493781614c6e565b61495f565b846001600160a01b0316846001600160a01b03161461495f5761495f8482614d1d565b5050505050565b6001600160a01b0382166149bc5760405162461bcd60e51b815260206004820181905260248201527f4552433732313a206d696e7420746f20746865207a65726f20616464726573736044820152606401610ce4565b6000818152600460205260409020546001600160a01b031615614a215760405162461bcd60e51b815260206004820152601c60248201527f4552433732313a20746f6b656e20616c7265616479206d696e746564000000006044820152606401610ce4565b614a2f600083836001614666565b6000818152600460205260409020546001600160a01b031615614a945760405162461bcd60e51b815260206004820152601c60248201527f4552433732313a20746f6b656e20616c7265616479206d696e746564000000006044820152606401610ce4565b6001600160a01b038216600081815260056020908152604080832080546001019055848352600490915280822080546001600160a01b0319168417905551839291907fddf252ad1be2c89b69c2b068fc378daa952ba7f163c4a11628f55a4df523b3ef908290a45050565b60606000614b0c83614d61565b60010190506000816001600160401b03811115614b2b57614b2b615334565b6040519080825280601f01601f191660200182016040528015614b55576020820181803683370190505b5090508181016020015b600019016f181899199a1a9b1b9c1cb0b131b232b360811b600a86061a8153600a8504945084614b5f57509392505050565b60006001600160e01b031982166380ac58cd60e01b1480614bc257506001600160e01b03198216635b5e139f60e01b145b80610a3c5750610a3c82614e39565b60006001614bde84611ac1565b614be89190615e9b565b600083815260096020526040902054909150808214614c3b576001600160a01b03841660009081526008602090815260408083208584528252808320548484528184208190558352600990915290208190555b5060009182526009602090815260408084208490556001600160a01b039094168352600881528383209183525290812055565b600a54600090614c8090600190615e9b565b6000838152600b6020526040812054600a8054939450909284908110614ca857614ca8615b85565b9060005260206000200154905080600a8381548110614cc957614cc9615b85565b6000918252602080832090910192909255828152600b9091526040808220849055858252812055600a805480614d0157614d01615eae565b6001900381819060005260206000200160009055905550505050565b6000614d2883611ac1565b6001600160a01b039093166000908152600860209081526040808320868452825280832085905593825260099052919091209190915550565b60008072184f03e93ff9f4daa797ed6e38ed64bf6a1f0160401b8310614da05772184f03e93ff9f4daa797ed6e38ed64bf6a1f0160401b830492506040015b6d04ee2d6d415b85acef81000000008310614dcc576d04ee2d6d415b85acef8100000000830492506020015b662386f26fc100008310614dea57662386f26fc10000830492506010015b6305f5e1008310614e02576305f5e100830492506008015b6127108310614e1657612710830492506004015b60648310614e28576064830492506002015b600a8310610a3c5760010192915050565b60006001600160e01b0319821663152a902d60e11b1480610a3c57506301ffc9a760e01b6001600160e01b0319831614610a3c565b6040518060e001604052806000815260200160006001600160a01b0316815260200160608152602001600081526020016000815260200160608152602001600081525090565b828054828255906000526020600020908101928215614eef579160200282015b82811115614eef578251825591602001919060010190614ed4565b50614efb929150615053565b5090565b828054828255906000526020600020908101928215614eef579160200282015b82811115614eef57825182546001600160a01b0319166001600160a01b03909116178255602090920191600190910190614f1f565b828054828255906000526020600020908101928215614f9a579160200282015b82811115614f9a5782518290614f8a9082615c88565b5091602001919060010190614f74565b50614efb929150615068565b604051806102a00160405280600081526020016000815260200160006001600160a01b03168152602001600015158152602001606081526020016060815260200160608152602001606081526020016060815260200160008152602001600081526020016000815260200160608152602001600015158152602001600081526020016060815260200160608152602001600081526020016000815260200160608152602001606081525090565b5b80821115614efb5760008155600101615054565b80821115614efb57600061507c8282615085565b50600101615068565b50805461509190615b4b565b6000825580601f106150a1575050565b601f01602090049060005260206000209081019061160a9190615053565b6000602082840312156150d157600080fd5b5035919050565b6001600160e01b03198116811461160a57600080fd5b60006020828403121561510057600080fd5b8135614806816150d8565b60005b8381101561512657818101518382015260200161510e565b50506000910152565b6000815180845261514781602086016020860161510b565b601f01601f19169290920160200192915050565b602081526000614806602083018461512f565b600081518084526020808501945080840160005b8381101561519e57815187529582019590820190600101615182565b509495945050505050565b8051825260018060a01b0360208201511660208301526000604082015160e060408501526151da60e085018261512f565b9050606083015160608501526080830151608085015260a083015184820360a0860152615207828261516e565b91505060c083015160c08501528091505092915050565b60208152600061480660208301846151a9565b80356001600160a01b038116811461524857600080fd5b919050565b6000806040838503121561526057600080fd5b61526983615231565b946020939093013593505050565b6000806040838503121561528a57600080fd5b50508035926020909101359150565b6000602082840312156152ab57600080fd5b61480682615231565b6020808252825182820181905260009190848201906040850190845b818110156152ec578351835292840192918401916001016152d0565b50909695505050505050565b60008060006060848603121561530d57600080fd5b61531684615231565b925061532460208501615231565b9150604084013590509250925092565b634e487b7160e01b600052604160045260246000fd5b60006001600160401b038084111561536457615364615334565b604051601f8501601f19908116603f0116810190828211818310171561538c5761538c615334565b816040528093508581528686860111156153a557600080fd5b858560208301376000602087830101525050509392505050565b600082601f8301126153d057600080fd5b6148068383356020850161534a565b600080604083850312156153f257600080fd5b82356001600160401b038082111561540957600080fd5b615415868387016153bf565b9350602085013591508082111561542b57600080fd5b50615438858286016153bf565b9150509250929050565b60008060006060848603121561545757600080fd5b8335925060208401356001600160401b0381111561547457600080fd5b615480868287016153bf565b925050604084013590509250925092565b80356001600160601b038116811461524857600080fd5b600080600080600080600060e0888a0312156154c357600080fd5b6154cc88615231565b965060208801356001600160401b03808211156154e857600080fd5b6154f48b838c016153bf565b975060408a013591508082111561550a57600080fd5b6155168b838c016153bf565b965061552460608b01615491565b955060808a013591508082111561553a57600080fd5b6155468b838c016153bf565b945060a08a013591508082111561555c57600080fd5b6155688b838c016153bf565b935060c08a013591508082111561557e57600080fd5b5061558b8a828b016153bf565b91505092959891949750929550565b600081518084526020808501945080840160005b8381101561519e5781516001600160a01b0316875295820195908201906001016155ae565b600081518084526020808501808196508360051b8101915082860160005b8581101561561b57828403895261560984835161512f565b988501989350908401906001016155f1565b5091979650505050505050565b60006102a08251845260208301516020850152604083015161565560408601826001600160a01b03169052565b506060830151615669606086018215159052565b5060808301518160808601526156818286018261512f565b91505060a083015184820360a086015261569b828261512f565b91505060c083015184820360c08601526156b5828261512f565b91505060e083015184820360e08601526156cf828261512f565b91505061010080840151858303828701526156ea838261512f565b92505050610120808401518186015250610140808401518186015250610160808401518186015250610180808401518583038287015261572a838261516e565b925050506101a0808401516157428287018215159052565b50506101c083810151908501526101e08084015185830382870152615767838261559a565b925050506102008084015185830382870152615783838261559a565b9250505061022080840151818601525061024080840151818601525061026080840151858303828701526157b783826155d3565b9250505061028080840151858303828701526157d3838261559a565b9695505050505050565b6000602080830181845280855180835260408601915060408160051b870101925083870160005b8281101561583257603f19888603018452615820858351615628565b94509285019290850190600101615804565b5092979650505050505050565b6000806000806080858703121561585557600080fd5b84356001600160401b038082111561586c57600080fd5b615878888389016153bf565b9550602087013591508082111561588e57600080fd5b61589a888389016153bf565b945060408701359150808211156158b057600080fd5b6158bc888389016153bf565b935060608701359150808211156158d257600080fd5b506158df878288016153bf565b91505092959194509250565b600080604083850312156158fe57600080fd5b61590783615231565b91506020830135801515811461591c57600080fd5b809150509250929050565b6000602080830181845280855180835260408601915060408160051b870101925083870160005b8281101561583257603f1988860301845261596a8583516151a9565b9450928501929085019060010161594e565b6000806000806080858703121561599257600080fd5b61599b85615231565b93506159a960208601615231565b92506040850135915060608501356001600160401b038111156159cb57600080fd5b8501601f810187136159dc57600080fd5b6158df8782356020840161534a565b600080600060608486031215615a0057600080fd5b615a0984615231565b925060208401356001600160401b0380821115615a2557600080fd5b615a31878388016153bf565b93506040860135915080821115615a4757600080fd5b50615a54868287016153bf565b9150509250925092565b6020815260006148066020830184615628565b608081526000615a84608083018761512f565b8281036020840152615a96818761512f565b90508460408401528281036060840152615ab0818561512f565b979650505050505050565b600060208284031215615acd57600080fd5b81356001600160401b03811115615ae357600080fd5b613f07848285016153bf565b60008060408385031215615b0257600080fd5b615b0b83615231565b9150615b1960208401615231565b90509250929050565b634e487b7160e01b600052601160045260246000fd5b80820180821115610a3c57610a3c615b22565b600181811c90821680615b5f57607f821691505b602082108103615b7f57634e487b7160e01b600052602260045260246000fd5b50919050565b634e487b7160e01b600052603260045260246000fd5b600060018201615bad57615bad615b22565b5060010190565b6020808252602d908201527f4552433732313a2063616c6c6572206973206e6f7420746f6b656e206f776e6560408201526c1c881bdc88185c1c1c9bdd9959609a1b606082015260800190565b8082028115828204841417610a3c57610a3c615b22565b600082615c3557634e487b7160e01b600052601260045260246000fd5b500490565b601f821115610d8557600081815260208120601f850160051c81016020861015615c615750805b601f850160051c820191505b81811015615c8057828155600101615c6d565b505050505050565b81516001600160401b03811115615ca157615ca1615334565b615cb581615caf8454615b4b565b84615c3a565b602080601f831160018114615cea5760008415615cd25750858301515b600019600386901b1c1916600185901b178555615c80565b600085815260208120601f198616915b82811015615d1957888601518255948401946001909101908401615cfa565b5085821015615d375787850151600019600388901b60f8161c191681555b5050505050600190811b01905550565b604081526000615d5a604083018561512f565b90508260208301529392505050565b60008351615d7b81846020880161510b565b835190830190615d8f81836020880161510b565b01949350505050565b60008251615daa81846020870161510b565b9190910192915050565b60208082526025908201527f4552433732313a207472616e736665722066726f6d20696e636f72726563742060408201526437bbb732b960d91b606082015260800190565b60208082526032908201527f4552433732313a207472616e7366657220746f206e6f6e20455243373231526560408201527131b2b4bb32b91034b6b83632b6b2b73a32b960711b606082015260800190565b6001600160a01b03858116825284166020820152604081018390526080606082018190526000906157d39083018461512f565b600060208284031215615e9057600080fd5b8151614806816150d8565b81810381811115610a3c57610a3c615b22565b634e487b7160e01b600052603160045260246000fdfe68747470733a2f2f676174657761792e70696e6174612e636c6f75642f697066732fa26469706673582212203899f78c6775687d9b602dcd74ac91581ca3a1dbd8fbe28b4f7e0320875817d264736f6c63430008110033",
  "devdoc": {
    "kind": "dev",
    "methods": {
      "approve(address,uint256)": {
        "details": "See {IERC721-approve}."
      },
      "balanceOf(address)": {
        "details": "See {IERC721-balanceOf}."
      },
      "getApproved(uint256)": {
        "details": "See {IERC721-getApproved}."
      },
      "isApprovedForAll(address,address)": {
        "details": "See {IERC721-isApprovedForAll}."
      },
      "name()": {
        "details": "See {IERC721Metadata-name}."
      },
      "owner()": {
        "details": "Returns the address of the current owner."
      },
      "ownerOf(uint256)": {
        "details": "See {IERC721-ownerOf}."
      },
      "renounceOwnership()": {
        "details": "Leaves the contract without owner. It will not be possible to call `onlyOwner` functions. Can only be called by the current owner. NOTE: Renouncing ownership will leave the contract without an owner, thereby disabling any functionality that is only available to the owner."
      },
      "royaltyInfo(uint256,uint256)": {
        "details": "Returns how much royalty is owed and to whom, based on a sale price that may be denominated in any unit of exchange. The royalty amount is denominated and should be paid in that same unit of exchange."
      },
      "safeTransferFrom(address,address,uint256)": {
        "details": "See {IERC721-safeTransferFrom}."
      },
      "safeTransferFrom(address,address,uint256,bytes)": {
        "details": "See {IERC721-safeTransferFrom}."
      },
      "setApprovalForAll(address,bool)": {
        "details": "See {IERC721-setApprovalForAll}."
      },
      "symbol()": {
        "details": "See {IERC721Metadata-symbol}."
      },
      "tokenByIndex(uint256)": {
        "details": "See {IERC721Enumerable-tokenByIndex}."
      },
      "tokenOfOwnerByIndex(address,uint256)": {
        "details": "See {IERC721Enumerable-tokenOfOwnerByIndex}."
      },
      "totalSupply()": {
        "details": "See {IERC721Enumerable-totalSupply}."
      },
      "transferFrom(address,address,uint256)": {
        "details": "See {IERC721-transferFrom}."
      },
      "transferOwnership(address)": {
        "details": "Transfers ownership of the contract to a new account (`newOwner`). Can only be called by the current owner."
      }
    },
    "version": 1
  },
  "userdoc": {
    "kind": "user",
    "methods": {},
    "version": 1
  },
  "storageLayout": {
    "storage": [
      {
        "astId": 1916,
        "contract": "contracts/YourCollectible.sol:YourCollectible",
        "label": "_defaultRoyaltyInfo",
        "offset": 0,
        "slot": "0",
        "type": "t_struct(RoyaltyInfo)1913_storage"
      },
      {
        "astId": 1921,
        "contract": "contracts/YourCollectible.sol:YourCollectible",
        "label": "_tokenRoyaltyInfo",
        "offset": 0,
        "slot": "1",
        "type": "t_mapping(t_uint256,t_struct(RoyaltyInfo)1913_storage)"
      },
      {
        "astId": 250,
        "contract": "contracts/YourCollectible.sol:YourCollectible",
        "label": "_name",
        "offset": 0,
        "slot": "2",
        "type": "t_string_storage"
      },
      {
        "astId": 252,
        "contract": "contracts/YourCollectible.sol:YourCollectible",
        "label": "_symbol",
        "offset": 0,
        "slot": "3",
        "type": "t_string_storage"
      },
      {
        "astId": 256,
        "contract": "contracts/YourCollectible.sol:YourCollectible",
        "label": "_owners",
        "offset": 0,
        "slot": "4",
        "type": "t_mapping(t_uint256,t_address)"
      },
      {
        "astId": 260,
        "contract": "contracts/YourCollectible.sol:YourCollectible",
        "label": "_balances",
        "offset": 0,
        "slot": "5",
        "type": "t_mapping(t_address,t_uint256)"
      },
      {
        "astId": 264,
        "contract": "contracts/YourCollectible.sol:YourCollectible",
        "label": "_tokenApprovals",
        "offset": 0,
        "slot": "6",
        "type": "t_mapping(t_uint256,t_address)"
      },
      {
        "astId": 270,
        "contract": "contracts/YourCollectible.sol:YourCollectible",
        "label": "_operatorApprovals",
        "offset": 0,
        "slot": "7",
        "type": "t_mapping(t_address,t_mapping(t_address,t_bool))"
      },
      {
        "astId": 1300,
        "contract": "contracts/YourCollectible.sol:YourCollectible",
        "label": "_ownedTokens",
        "offset": 0,
        "slot": "8",
        "type": "t_mapping(t_address,t_mapping(t_uint256,t_uint256))"
      },
      {
        "astId": 1304,
        "contract": "contracts/YourCollectible.sol:YourCollectible",
        "label": "_ownedTokensIndex",
        "offset": 0,
        "slot": "9",
        "type": "t_mapping(t_uint256,t_uint256)"
      },
      {
        "astId": 1307,
        "contract": "contracts/YourCollectible.sol:YourCollectible",
        "label": "_allTokens",
        "offset": 0,
        "slot": "10",
        "type": "t_array(t_uint256)dyn_storage"
      },
      {
        "astId": 1311,
        "contract": "contracts/YourCollectible.sol:YourCollectible",
        "label": "_allTokensIndex",
        "offset": 0,
        "slot": "11",
        "type": "t_mapping(t_uint256,t_uint256)"
      },
      {
        "astId": 1701,
        "contract": "contracts/YourCollectible.sol:YourCollectible",
        "label": "_tokenURIs",
        "offset": 0,
        "slot": "12",
        "type": "t_mapping(t_uint256,t_string_storage)"
      },
      {
        "astId": 7,
        "contract": "contracts/YourCollectible.sol:YourCollectible",
        "label": "_owner",
        "offset": 0,
        "slot": "13",
        "type": "t_address"
      },
      {
        "astId": 170,
        "contract": "contracts/YourCollectible.sol:YourCollectible",
        "label": "_status",
        "offset": 0,
        "slot": "14",
        "type": "t_uint256"
      },
      {
        "astId": 3798,
        "contract": "contracts/YourCollectible.sol:YourCollectible",
        "label": "_tokenIdCounter",
        "offset": 0,
        "slot": "15",
        "type": "t_struct(Counter)2463_storage"
      },
      {
        "astId": 3801,
        "contract": "contracts/YourCollectible.sol:YourCollectible",
        "label": "_transactionCounter",
        "offset": 0,
        "slot": "16",
        "type": "t_struct(Counter)2463_storage"
      },
      {
        "astId": 3803,
        "contract": "contracts/YourCollectible.sol:YourCollectible",
        "label": "totalFeesCollected",
        "offset": 0,
        "slot": "17",
        "type": "t_uint256"
      },
      {
        "astId": 3821,
        "contract": "contracts/YourCollectible.sol:YourCollectible",
        "label": "_users",
        "offset": 0,
        "slot": "18",
        "type": "t_mapping(t_address,t_struct(User)3816_storage)"
      },
      {
        "astId": 4275,
        "contract": "contracts/YourCollectible.sol:YourCollectible",
        "label": "_eduResources",
        "offset": 0,
        "slot": "19",
        "type": "t_mapping(t_uint256,t_struct(EduResource)4231_storage)"
      },
      {
        "astId": 4280,
        "contract": "contracts/YourCollectible.sol:YourCollectible",
        "label": "_resourcesBySubject",
        "offset": 0,
        "slot": "20",
        "type": "t_mapping(t_string_memory_ptr,t_array(t_uint256)dyn_storage)"
      },
      {
        "astId": 4285,
        "contract": "contracts/YourCollectible.sol:YourCollectible",
        "label": "_resourcesByAddress",
        "offset": 0,
        "slot": "21",
        "type": "t_mapping(t_address,t_array(t_uint256)dyn_storage)"
      },
      {
        "astId": 4290,
        "contract": "contracts/YourCollectible.sol:YourCollectible",
        "label": "_resourcesAddress",
        "offset": 0,
        "slot": "22",
        "type": "t_mapping(t_address,t_array(t_uint256)dyn_storage)"
      },
      {
        "astId": 4293,
        "contract": "contracts/YourCollectible.sol:YourCollectible",
        "label": "listingFeePercentage",
        "offset": 0,
        "slot": "23",
        "type": "t_uint256"
      },
      {
        "astId": 5061,
        "contract": "contracts/YourCollectible.sol:YourCollectible",
        "label": "_commentIdCounter",
        "offset": 0,
        "slot": "24",
        "type": "t_struct(Counter)2463_storage"
      },
      {
        "astId": 5066,
        "contract": "contracts/YourCollectible.sol:YourCollectible",
        "label": "_comments",
        "offset": 0,
        "slot": "25",
        "type": "t_mapping(t_uint256,t_struct(Comment)4183_storage)"
      },
      {
        "astId": 5072,
        "contract": "contracts/YourCollectible.sol:YourCollectible",
        "label": "_commentLikes",
        "offset": 0,
        "slot": "26",
        "type": "t_mapping(t_uint256,t_mapping(t_address,t_bool))"
      }
    ],
    "types": {
      "t_address": {
        "encoding": "inplace",
        "label": "address",
        "numberOfBytes": "20"
      },
      "t_address_payable": {
        "encoding": "inplace",
        "label": "address payable",
        "numberOfBytes": "20"
      },
      "t_array(t_address)dyn_storage": {
        "base": "t_address",
        "encoding": "dynamic_array",
        "label": "address[]",
        "numberOfBytes": "32"
      },
      "t_array(t_string_storage)dyn_storage": {
        "base": "t_string_storage",
        "encoding": "dynamic_array",
        "label": "string[]",
        "numberOfBytes": "32"
      },
      "t_array(t_uint256)dyn_storage": {
        "base": "t_uint256",
        "encoding": "dynamic_array",
        "label": "uint256[]",
        "numberOfBytes": "32"
      },
      "t_bool": {
        "encoding": "inplace",
        "label": "bool",
        "numberOfBytes": "1"
      },
      "t_bytes32": {
        "encoding": "inplace",
        "label": "bytes32",
        "numberOfBytes": "32"
      },
      "t_mapping(t_address,t_array(t_uint256)dyn_storage)": {
        "encoding": "mapping",
        "key": "t_address",
        "label": "mapping(address => uint256[])",
        "numberOfBytes": "32",
        "value": "t_array(t_uint256)dyn_storage"
      },
      "t_mapping(t_address,t_bool)": {
        "encoding": "mapping",
        "key": "t_address",
        "label": "mapping(address => bool)",
        "numberOfBytes": "32",
        "value": "t_bool"
      },
      "t_mapping(t_address,t_mapping(t_address,t_bool))": {
        "encoding": "mapping",
        "key": "t_address",
        "label": "mapping(address => mapping(address => bool))",
        "numberOfBytes": "32",
        "value": "t_mapping(t_address,t_bool)"
      },
      "t_mapping(t_address,t_mapping(t_uint256,t_uint256))": {
        "encoding": "mapping",
        "key": "t_address",
        "label": "mapping(address => mapping(uint256 => uint256))",
        "numberOfBytes": "32",
        "value": "t_mapping(t_uint256,t_uint256)"
      },
      "t_mapping(t_address,t_struct(User)3816_storage)": {
        "encoding": "mapping",
        "key": "t_address",
        "label": "mapping(address => struct YourCollectible.User)",
        "numberOfBytes": "32",
        "value": "t_struct(User)3816_storage"
      },
      "t_mapping(t_address,t_uint256)": {
        "encoding": "mapping",
        "key": "t_address",
        "label": "mapping(address => uint256)",
        "numberOfBytes": "32",
        "value": "t_uint256"
      },
      "t_mapping(t_string_memory_ptr,t_array(t_uint256)dyn_storage)": {
        "encoding": "mapping",
        "key": "t_string_memory_ptr",
        "label": "mapping(string => uint256[])",
        "numberOfBytes": "32",
        "value": "t_array(t_uint256)dyn_storage"
      },
      "t_mapping(t_uint256,t_address)": {
        "encoding": "mapping",
        "key": "t_uint256",
        "label": "mapping(uint256 => address)",
        "numberOfBytes": "32",
        "value": "t_address"
      },
      "t_mapping(t_uint256,t_mapping(t_address,t_bool))": {
        "encoding": "mapping",
        "key": "t_uint256",
        "label": "mapping(uint256 => mapping(address => bool))",
        "numberOfBytes": "32",
        "value": "t_mapping(t_address,t_bool)"
      },
      "t_mapping(t_uint256,t_string_storage)": {
        "encoding": "mapping",
        "key": "t_uint256",
        "label": "mapping(uint256 => string)",
        "numberOfBytes": "32",
        "value": "t_string_storage"
      },
      "t_mapping(t_uint256,t_struct(Comment)4183_storage)": {
        "encoding": "mapping",
        "key": "t_uint256",
        "label": "mapping(uint256 => struct YourCollectible.Comment)",
        "numberOfBytes": "32",
        "value": "t_struct(Comment)4183_storage"
      },
      "t_mapping(t_uint256,t_struct(EduResource)4231_storage)": {
        "encoding": "mapping",
        "key": "t_uint256",
        "label": "mapping(uint256 => struct YourCollectible.EduResource)",
        "numberOfBytes": "32",
        "value": "t_struct(EduResource)4231_storage"
      },
      "t_mapping(t_uint256,t_struct(RoyaltyInfo)1913_storage)": {
        "encoding": "mapping",
        "key": "t_uint256",
        "label": "mapping(uint256 => struct ERC2981.RoyaltyInfo)",
        "numberOfBytes": "32",
        "value": "t_struct(RoyaltyInfo)1913_storage"
      },
      "t_mapping(t_uint256,t_uint256)": {
        "encoding": "mapping",
        "key": "t_uint256",
        "label": "mapping(uint256 => uint256)",
        "numberOfBytes": "32",
        "value": "t_uint256"
      },
      "t_string_memory_ptr": {
        "encoding": "bytes",
        "label": "string",
        "numberOfBytes": "32"
      },
      "t_string_storage": {
        "encoding": "bytes",
        "label": "string",
        "numberOfBytes": "32"
      },
      "t_struct(Comment)4183_storage": {
        "encoding": "inplace",
        "label": "struct YourCollectible.Comment",
        "members": [
          {
            "astId": 4169,
            "contract": "contracts/YourCollectible.sol:YourCollectible",
            "label": "id",
            "offset": 0,
            "slot": "0",
            "type": "t_uint256"
          },
          {
            "astId": 4171,
            "contract": "contracts/YourCollectible.sol:YourCollectible",
            "label": "author",
            "offset": 0,
            "slot": "1",
            "type": "t_address"
          },
          {
            "astId": 4173,
            "contract": "contracts/YourCollectible.sol:YourCollectible",
            "label": "content",
            "offset": 0,
            "slot": "2",
            "type": "t_string_storage"
          },
          {
            "astId": 4175,
            "contract": "contracts/YourCollectible.sol:YourCollectible",
            "label": "timestamp",
            "offset": 0,
            "slot": "3",
            "type": "t_uint256"
          },
          {
            "astId": 4177,
            "contract": "contracts/YourCollectible.sol:YourCollectible",
            "label": "likes",
            "offset": 0,
            "slot": "4",
            "type": "t_uint256"
          },
          {
            "astId": 4180,
            "contract": "contracts/YourCollectible.sol:YourCollectible",
            "label": "replies",
            "offset": 0,
            "slot": "5",
            "type": "t_array(t_uint256)dyn_storage"
          },
          {
            "astId": 4182,
            "contract": "contracts/YourCollectible.sol:YourCollectible",
            "label": "parentId",
            "offset": 0,
            "slot": "6",
            "type": "t_uint256"
          }
        ],
        "numberOfBytes": "224"
      },
      "t_struct(Counter)2463_storage": {
        "encoding": "inplace",
        "label": "struct Counters.Counter",
        "members": [
          {
            "astId": 2462,
            "contract": "contracts/YourCollectible.sol:YourCollectible",
            "label": "_value",
            "offset": 0,
            "slot": "0",
            "type": "t_uint256"
          }
        ],
        "numberOfBytes": "32"
      },
      "t_struct(EduResource)4231_storage": {
        "encoding": "inplace",
        "label": "struct YourCollectible.EduResource",
        "members": [
          {
            "astId": 4185,
            "contract": "contracts/YourCollectible.sol:YourCollectible",
            "label": "tokenId",
            "offset": 0,
            "slot": "0",
            "type": "t_uint256"
          },
          {
            "astId": 4187,
            "contract": "contracts/YourCollectible.sol:YourCollectible",
            "label": "price",
            "offset": 0,
            "slot": "1",
            "type": "t_uint256"
          },
          {
            "astId": 4189,
            "contract": "contracts/YourCollectible.sol:YourCollectible",
            "label": "creator",
            "offset": 0,
            "slot": "2",
            "type": "t_address_payable"
          },
          {
            "astId": 4191,
            "contract": "contracts/YourCollectible.sol:YourCollectible",
            "label": "isListed",
            "offset": 20,
            "slot": "2",
            "type": "t_bool"
          },
          {
            "astId": 4193,
            "contract": "contracts/YourCollectible.sol:YourCollectible",
            "label": "eduUri",
            "offset": 0,
            "slot": "3",
            "type": "t_string_storage"
          },
          {
            "astId": 4195,
            "contract": "contracts/YourCollectible.sol:YourCollectible",
            "label": "tokenUri",
            "offset": 0,
            "slot": "4",
            "type": "t_string_storage"
          },
          {
            "astId": 4197,
            "contract": "contracts/YourCollectible.sol:YourCollectible",
            "label": "resourceType",
            "offset": 0,
            "slot": "5",
            "type": "t_string_storage"
          },
          {
            "astId": 4199,
            "contract": "contracts/YourCollectible.sol:YourCollectible",
            "label": "subject",
            "offset": 0,
            "slot": "6",
            "type": "t_string_storage"
          },
          {
            "astId": 4201,
            "contract": "contracts/YourCollectible.sol:YourCollectible",
            "label": "educationLevel",
            "offset": 0,
            "slot": "7",
            "type": "t_string_storage"
          },
          {
            "astId": 4203,
            "contract": "contracts/YourCollectible.sol:YourCollectible",
            "label": "downloadCount",
            "offset": 0,
            "slot": "8",
            "type": "t_uint256"
          },
          {
            "astId": 4205,
            "contract": "contracts/YourCollectible.sol:YourCollectible",
            "label": "rating",
            "offset": 0,
            "slot": "9",
            "type": "t_uint256"
          },
          {
            "astId": 4207,
            "contract": "contracts/YourCollectible.sol:YourCollectible",
            "label": "ratingCount",
            "offset": 0,
            "slot": "10",
            "type": "t_uint256"
          },
          {
            "astId": 4210,
            "contract": "contracts/YourCollectible.sol:YourCollectible",
            "label": "commentIds",
            "offset": 0,
            "slot": "11",
            "type": "t_array(t_uint256)dyn_storage"
          },
          {
            "astId": 4212,
            "contract": "contracts/YourCollectible.sol:YourCollectible",
            "label": "isAccredited",
            "offset": 0,
            "slot": "12",
            "type": "t_bool"
          },
          {
            "astId": 4214,
            "contract": "contracts/YourCollectible.sol:YourCollectible",
            "label": "accreditedCount",
            "offset": 0,
            "slot": "13",
            "type": "t_uint256"
          },
          {
            "astId": 4217,
            "contract": "contracts/YourCollectible.sol:YourCollectible",
            "label": "accreditedInstitutions",
            "offset": 0,
            "slot": "14",
            "type": "t_array(t_address)dyn_storage"
          },
          {
            "astId": 4220,
            "contract": "contracts/YourCollectible.sol:YourCollectible",
            "label": "buyers",
            "offset": 0,
            "slot": "15",
            "type": "t_array(t_address)dyn_storage"
          },
          {
            "astId": 4222,
            "contract": "contracts/YourCollectible.sol:YourCollectible",
            "label": "creationTime",
            "offset": 0,
            "slot": "16",
            "type": "t_uint256"
          },
          {
            "astId": 4224,
            "contract": "contracts/YourCollectible.sol:YourCollectible",
            "label": "minRating",
            "offset": 0,
            "slot": "17",
            "type": "t_uint256"
          },
          {
            "astId": 4227,
            "contract": "contracts/YourCollectible.sol:YourCollectible",
            "label": "reviews",
            "offset": 0,
            "slot": "18",
            "type": "t_array(t_string_storage)dyn_storage"
          },
          {
            "astId": 4230,
            "contract": "contracts/YourCollectible.sol:YourCollectible",
            "label": "reviewers",
            "offset": 0,
            "slot": "19",
            "type": "t_array(t_address)dyn_storage"
          }
        ],
        "numberOfBytes": "640"
      },
      "t_struct(RoyaltyInfo)1913_storage": {
        "encoding": "inplace",
        "label": "struct ERC2981.RoyaltyInfo",
        "members": [
          {
            "astId": 1910,
            "contract": "contracts/YourCollectible.sol:YourCollectible",
            "label": "receiver",
            "offset": 0,
            "slot": "0",
            "type": "t_address"
          },
          {
            "astId": 1912,
            "contract": "contracts/YourCollectible.sol:YourCollectible",
            "label": "royaltyFraction",
            "offset": 20,
            "slot": "0",
            "type": "t_uint96"
          }
        ],
        "numberOfBytes": "32"
      },
      "t_struct(User)3816_storage": {
        "encoding": "inplace",
        "label": "struct YourCollectible.User",
        "members": [
          {
            "astId": 3805,
            "contract": "contracts/YourCollectible.sol:YourCollectible",
            "label": "name",
            "offset": 0,
            "slot": "0",
            "type": "t_string_storage"
          },
          {
            "astId": 3807,
            "contract": "contracts/YourCollectible.sol:YourCollectible",
            "label": "password",
            "offset": 0,
            "slot": "1",
            "type": "t_bytes32"
          },
          {
            "astId": 3809,
            "contract": "contracts/YourCollectible.sol:YourCollectible",
            "label": "wallet",
            "offset": 0,
            "slot": "2",
            "type": "t_address_payable"
          },
          {
            "astId": 3811,
            "contract": "contracts/YourCollectible.sol:YourCollectible",
            "label": "avatar",
            "offset": 0,
            "slot": "3",
            "type": "t_string_storage"
          },
          {
            "astId": 3813,
            "contract": "contracts/YourCollectible.sol:YourCollectible",
            "label": "bio",
            "offset": 0,
            "slot": "4",
            "type": "t_string_storage"
          },
          {
            "astId": 3815,
            "contract": "contracts/YourCollectible.sol:YourCollectible",
            "label": "integral",
            "offset": 0,
            "slot": "5",
            "type": "t_uint256"
          }
        ],
        "numberOfBytes": "192"
      },
      "t_uint256": {
        "encoding": "inplace",
        "label": "uint256",
        "numberOfBytes": "32"
      },
      "t_uint96": {
        "encoding": "inplace",
        "label": "uint96",
        "numberOfBytes": "12"
      }
    }
  }
}